{
  "contractName": "Session",
  "abi": [
    {
      "inputs": [
        {
          "internalType": "address",
          "name": "_mainContract",
          "type": "address"
        },
        {
          "internalType": "uint256",
          "name": "_itemID",
          "type": "uint256"
        },
        {
          "internalType": "string",
          "name": "_itemName",
          "type": "string"
        },
        {
          "internalType": "string",
          "name": "_description",
          "type": "string"
        }
      ],
      "stateMutability": "nonpayable",
      "type": "constructor"
    },
    {
      "inputs": [],
      "name": "admin",
      "outputs": [
        {
          "internalType": "address",
          "name": "",
          "type": "address"
        }
      ],
      "stateMutability": "view",
      "type": "function"
    },
    {
      "inputs": [
        {
          "internalType": "uint256",
          "name": "",
          "type": "uint256"
        }
      ],
      "name": "givenPrices",
      "outputs": [
        {
          "internalType": "uint256",
          "name": "",
          "type": "uint256"
        }
      ],
      "stateMutability": "view",
      "type": "function"
    },
    {
      "inputs": [
        {
          "internalType": "uint256",
          "name": "",
          "type": "uint256"
        }
      ],
      "name": "imageHashes",
      "outputs": [
        {
          "internalType": "address",
          "name": "",
          "type": "address"
        }
      ],
      "stateMutability": "view",
      "type": "function"
    },
    {
      "inputs": [],
      "name": "item",
      "outputs": [
        {
          "internalType": "uint256",
          "name": "itemID",
          "type": "uint256"
        },
        {
          "internalType": "string",
          "name": "itemName",
          "type": "string"
        },
        {
          "internalType": "string",
          "name": "description",
          "type": "string"
        }
      ],
      "stateMutability": "view",
      "type": "function"
    },
    {
      "inputs": [],
      "name": "lastPrice",
      "outputs": [
        {
          "internalType": "uint256",
          "name": "",
          "type": "uint256"
        }
      ],
      "stateMutability": "view",
      "type": "function"
    },
    {
      "inputs": [],
      "name": "mainContract",
      "outputs": [
        {
          "internalType": "address",
          "name": "",
          "type": "address"
        }
      ],
      "stateMutability": "view",
      "type": "function"
    },
    {
      "inputs": [
        {
          "internalType": "uint256",
          "name": "",
          "type": "uint256"
        }
      ],
      "name": "participants",
      "outputs": [
        {
          "internalType": "address",
          "name": "",
          "type": "address"
        }
      ],
      "stateMutability": "view",
      "type": "function"
    },
    {
      "inputs": [],
      "name": "proposedPrice",
      "outputs": [
        {
          "internalType": "uint256",
          "name": "",
          "type": "uint256"
        }
      ],
      "stateMutability": "view",
      "type": "function"
    },
    {
      "inputs": [],
      "name": "state",
      "outputs": [
        {
          "internalType": "enum Session.State",
          "name": "",
          "type": "uint8"
        }
      ],
      "stateMutability": "view",
      "type": "function"
    },
    {
      "inputs": [
        {
          "internalType": "address",
          "name": "_imageHash",
          "type": "address"
        }
      ],
      "name": "setHash",
      "outputs": [],
      "stateMutability": "nonpayable",
      "type": "function"
    },
    {
      "inputs": [],
      "name": "getHash",
      "outputs": [
        {
          "internalType": "address[]",
          "name": "",
          "type": "address[]"
        }
      ],
      "stateMutability": "view",
      "type": "function"
    },
    {
      "inputs": [],
      "name": "startSession",
      "outputs": [],
      "stateMutability": "nonpayable",
      "type": "function"
    },
    {
      "inputs": [
        {
          "internalType": "uint256",
          "name": "_newItemId",
          "type": "uint256"
        },
        {
          "internalType": "string",
          "name": "_newName",
          "type": "string"
        },
        {
          "internalType": "string",
          "name": "_newDescription",
          "type": "string"
        }
      ],
      "name": "updateProductInfo",
      "outputs": [],
      "stateMutability": "nonpayable",
      "type": "function"
    },
    {
      "inputs": [],
      "name": "getProposedPrice",
      "outputs": [
        {
          "internalType": "uint256",
          "name": "",
          "type": "uint256"
        }
      ],
      "stateMutability": "nonpayable",
      "type": "function"
    },
    {
      "inputs": [],
      "name": "stopSession",
      "outputs": [],
      "stateMutability": "nonpayable",
      "type": "function"
    },
    {
      "inputs": [],
      "name": "getPriceAndClose",
      "outputs": [
        {
          "internalType": "uint256",
          "name": "",
          "type": "uint256"
        }
      ],
      "stateMutability": "nonpayable",
      "type": "function"
    },
    {
      "inputs": [],
      "name": "getListOfPar",
      "outputs": [
        {
          "internalType": "address[]",
          "name": "",
          "type": "address[]"
        }
      ],
      "stateMutability": "nonpayable",
      "type": "function"
    },
    {
      "inputs": [],
      "name": "getGivenPrices",
      "outputs": [],
      "stateMutability": "nonpayable",
      "type": "function"
    }
  ],
  "bytecode": "0x60806040526000600860006101000a81548160ff021916908360038111156200002d576200002c620002b4565b5b02179055503480156200003f57600080fd5b50604051620023d5380380620023d5833981810160405281019062000065919062000520565b836000806101000a81548173ffffffffffffffffffffffffffffffffffffffff021916908373ffffffffffffffffffffffffffffffffffffffff16021790555083600160006101000a81548173ffffffffffffffffffffffffffffffffffffffff021916908373ffffffffffffffffffffffffffffffffffffffff16021790555033600260006101000a81548173ffffffffffffffffffffffffffffffffffffffff021916908373ffffffffffffffffffffffffffffffffffffffff1602179055508260036000018190555081600360010190805190602001906200014c92919062000204565b5080600360020190805190602001906200016892919062000204565b50600160009054906101000a900473ffffffffffffffffffffffffffffffffffffffff1673ffffffffffffffffffffffffffffffffffffffff1663f390dd86306040518263ffffffff1660e01b8152600401620001c69190620005e1565b600060405180830381600087803b158015620001e157600080fd5b505af1158015620001f6573d6000803e3d6000fd5b505050505050505062000663565b82805462000212906200062d565b90600052602060002090601f01602090048101928262000236576000855562000282565b82601f106200025157805160ff191683800117855562000282565b8280016001018555821562000282579182015b828111156200028157825182559160200191906001019062000264565b5b50905062000291919062000295565b5090565b5b80821115620002b057600081600090555060010162000296565b5090565b7f4e487b7100000000000000000000000000000000000000000000000000000000600052602160045260246000fd5b6000604051905090565b600080fd5b600080fd5b600073ffffffffffffffffffffffffffffffffffffffff82169050919050565b60006200032482620002f7565b9050919050565b620003368162000317565b81146200034257600080fd5b50565b60008151905062000356816200032b565b92915050565b6000819050919050565b62000371816200035c565b81146200037d57600080fd5b50565b600081519050620003918162000366565b92915050565b600080fd5b600080fd5b6000601f19601f8301169050919050565b7f4e487b7100000000000000000000000000000000000000000000000000000000600052604160045260246000fd5b620003ec82620003a1565b810181811067ffffffffffffffff821117156200040e576200040d620003b2565b5b80604052505050565b600062000423620002e3565b9050620004318282620003e1565b919050565b600067ffffffffffffffff821115620004545762000453620003b2565b5b6200045f82620003a1565b9050602081019050919050565b60005b838110156200048c5780820151818401526020810190506200046f565b838111156200049c576000848401525b50505050565b6000620004b9620004b38462000436565b62000417565b905082815260208101848484011115620004d857620004d76200039c565b5b620004e58482856200046c565b509392505050565b600082601f83011262000505576200050462000397565b5b815162000517848260208601620004a2565b91505092915050565b600080600080608085870312156200053d576200053c620002ed565b5b60006200054d8782880162000345565b9450506020620005608782880162000380565b935050604085015167ffffffffffffffff811115620005845762000583620002f2565b5b6200059287828801620004ed565b925050606085015167ffffffffffffffff811115620005b657620005b5620002f2565b5b620005c487828801620004ed565b91505092959194509250565b620005db8162000317565b82525050565b6000602082019050620005f86000830184620005d0565b92915050565b7f4e487b7100000000000000000000000000000000000000000000000000000000600052602260045260246000fd5b600060028204905060018216806200064657607f821691505b602082108114156200065d576200065c620005fe565b5b50919050565b611d6280620006736000396000f3fe608060405234801561001057600080fd5b50600436106101165760003560e01c8063c19d93fb116100a2578063d35d10b311610071578063d35d10b3146102ad578063e3635bfd146102c9578063f2a4a82e146102e7578063f851a44014610307578063fe0ae1651461032557610116565b8063c19d93fb14610249578063cbd8c61314610267578063d13319c414610271578063d270e7ab1461028f57610116565b80633638d677116100e95780633638d677146101a55780633ac70471146101c357806372d9f63a146101cd578063a797712e146101e9578063a8d4ab6c1461021957610116565b8063031a65581461011b578063053f14da146101395780631bc1023e1461015757806335c1d34914610175575b600080fd5b61012361032f565b60405161013091906111c2565b60405180910390f35b610141610450565b60405161014e91906111c2565b60405180910390f35b61015f610456565b60405161016c91906112cd565b60405180910390f35b61018f600480360381019061018a919061132f565b610514565b60405161019c919061136b565b60405180910390f35b6101ad610553565b6040516101ba91906111c2565b60405180910390f35b6101cb61072f565b005b6101e760048036038101906101e291906113b2565b6107ea565b005b61020360048036038101906101fe919061132f565b610850565b60405161021091906111c2565b60405180910390f35b610233600480360381019061022e919061132f565b610874565b604051610240919061136b565b60405180910390f35b6102516108b3565b60405161025e9190611456565b60405180910390f35b61026f6108c6565b005b610279610a88565b60405161028691906112cd565b60405180910390f35b610297610b16565b6040516102a4919061136b565b60405180910390f35b6102c760048036038101906102c291906115b7565b610b3a565b005b6102d1610d16565b6040516102de91906111c2565b60405180910390f35b6102ef610d1c565b6040516102fe939291906116ca565b60405180910390f35b61030f610e44565b60405161031c919061136b565b60405180910390f35b61032d610e6a565b005b60006001806003811115610346576103456113df565b5b600860009054906101000a900460ff166003811115610368576103676113df565b5b146103a8576040517f08c379a000000000000000000000000000000000000000000000000000000000815260040161039f9061175b565b60405180910390fd5b600160009054906101000a900473ffffffffffffffffffffffffffffffffffffffff1673ffffffffffffffffffffffffffffffffffffffff166345504805306040518263ffffffff1660e01b8152600401610403919061136b565b6020604051808303816000875af1158015610422573d6000803e3d6000fd5b505050506040513d601f19601f820116820180604052508101906104469190611790565b6006819055505090565b60075481565b6060600160009054906101000a900473ffffffffffffffffffffffffffffffffffffffff1673ffffffffffffffffffffffffffffffffffffffff16634188b458306040518263ffffffff1660e01b81526004016104b3919061136b565b6000604051808303816000875af11580156104d2573d6000803e3d6000fd5b505050506040513d6000823e3d601f19601f820116820180604052508101906104fb919061189a565b6009908051906020019061051092919061102f565b5090565b6009818154811061052457600080fd5b906000526020600020016000915054906101000a900473ffffffffffffffffffffffffffffffffffffffff1681565b6000600280600381111561056a576105696113df565b5b600860009054906101000a900460ff16600381111561058c5761058b6113df565b5b146105cc576040517f08c379a00000000000000000000000000000000000000000000000000000000081526004016105c39061175b565b60405180910390fd5b600160009054906101000a900473ffffffffffffffffffffffffffffffffffffffff1673ffffffffffffffffffffffffffffffffffffffff1663c692fc74306040518263ffffffff1660e01b8152600401610627919061136b565b6020604051808303816000875af1158015610646573d6000803e3d6000fd5b505050506040513d601f19601f8201168201806040525081019061066a9190611790565b6007819055506003600860006101000a81548160ff02191690836003811115610696576106956113df565b5b0217905550600160009054906101000a900473ffffffffffffffffffffffffffffffffffffffff1673ffffffffffffffffffffffffffffffffffffffff1663deeb3e703060036040518363ffffffff1660e01b81526004016106f9929190611928565b600060405180830381600087803b15801561071357600080fd5b505af1158015610727573d6000803e3d6000fd5b505050505090565b600160009054906101000a900473ffffffffffffffffffffffffffffffffffffffff1673ffffffffffffffffffffffffffffffffffffffff166327eaba5a306040518263ffffffff1660e01b815260040161078a919061136b565b6000604051808303816000875af11580156107a9573d6000803e3d6000fd5b505050506040513d6000823e3d601f19601f820116820180604052508101906107d29190611a14565b600a90805190602001906107e79291906110b9565b50565b600b819080600181540180825580915050600190039060005260206000200160009091909190916101000a81548173ffffffffffffffffffffffffffffffffffffffff021916908373ffffffffffffffffffffffffffffffffffffffff16021790555050565b600a818154811061086057600080fd5b906000526020600020016000915090505481565b600b818154811061088457600080fd5b906000526020600020016000915054906101000a900473ffffffffffffffffffffffffffffffffffffffff1681565b600860009054906101000a900460ff1681565b60018060038111156108db576108da6113df565b5b600860009054906101000a900460ff1660038111156108fd576108fc6113df565b5b1461093d576040517f08c379a00000000000000000000000000000000000000000000000000000000081526004016109349061175b565b60405180910390fd5b600160009054906101000a900473ffffffffffffffffffffffffffffffffffffffff1673ffffffffffffffffffffffffffffffffffffffff166327be24ee306040518263ffffffff1660e01b8152600401610998919061136b565b600060405180830381600087803b1580156109b257600080fd5b505af11580156109c6573d6000803e3d6000fd5b505050506002600860006101000a81548160ff021916908360038111156109f0576109ef6113df565b5b0217905550600160009054906101000a900473ffffffffffffffffffffffffffffffffffffffff1673ffffffffffffffffffffffffffffffffffffffff1663deeb3e703060026040518363ffffffff1660e01b8152600401610a53929190611a98565b600060405180830381600087803b158015610a6d57600080fd5b505af1158015610a81573d6000803e3d6000fd5b5050505050565b6060600b805480602002602001604051908101604052809291908181526020018280548015610b0c57602002820191906000526020600020905b8160009054906101000a900473ffffffffffffffffffffffffffffffffffffffff1673ffffffffffffffffffffffffffffffffffffffff1681526020019060010190808311610ac2575b5050505050905090565b60008054906101000a900473ffffffffffffffffffffffffffffffffffffffff1681565b600260009054906101000a900473ffffffffffffffffffffffffffffffffffffffff1673ffffffffffffffffffffffffffffffffffffffff163373ffffffffffffffffffffffffffffffffffffffff1614610bca576040517f08c379a0000000000000000000000000000000000000000000000000000000008152600401610bc190611b0d565b60405180910390fd5b600360000154604051602001610be09190611b4e565b6040516020818303038152906040528051906020012083604051602001610c079190611b4e565b6040516020818303038152906040528051906020012014610c2d57826003600001819055505b6003600101604051602001610c429190611c69565b6040516020818303038152906040528051906020012082604051602001610c699190611cb1565b6040516020818303038152906040528051906020012014610c9f578160036001019080519060200190610c9d929190611106565b505b6003600201604051602001610cb49190611c69565b6040516020818303038152906040528051906020012081604051602001610cdb9190611cb1565b6040516020818303038152906040528051906020012014610d11578060036002019080519060200190610d0f929190611106565b505b505050565b60065481565b6003806000015490806001018054610d3390611b98565b80601f0160208091040260200160405190810160405280929190818152602001828054610d5f90611b98565b8015610dac5780601f10610d8157610100808354040283529160200191610dac565b820191906000526020600020905b815481529060010190602001808311610d8f57829003601f168201915b505050505090806002018054610dc190611b98565b80601f0160208091040260200160405190810160405280929190818152602001828054610ded90611b98565b8015610e3a5780601f10610e0f57610100808354040283529160200191610e3a565b820191906000526020600020905b815481529060010190602001808311610e1d57829003601f168201915b5050505050905083565b600260009054906101000a900473ffffffffffffffffffffffffffffffffffffffff1681565b6000806003811115610e7f57610e7e6113df565b5b600860009054906101000a900460ff166003811115610ea157610ea06113df565b5b14610ee1576040517f08c379a0000000000000000000000000000000000000000000000000000000008152600401610ed89061175b565b60405180910390fd5b600260009054906101000a900473ffffffffffffffffffffffffffffffffffffffff1673ffffffffffffffffffffffffffffffffffffffff163373ffffffffffffffffffffffffffffffffffffffff1614610f71576040517f08c379a0000000000000000000000000000000000000000000000000000000008152600401610f6890611b0d565b60405180910390fd5b6001600860006101000a81548160ff02191690836003811115610f9757610f966113df565b5b0217905550600160009054906101000a900473ffffffffffffffffffffffffffffffffffffffff1673ffffffffffffffffffffffffffffffffffffffff1663deeb3e703060016040518363ffffffff1660e01b8152600401610ffa929190611d03565b600060405180830381600087803b15801561101457600080fd5b505af1158015611028573d6000803e3d6000fd5b5050505050565b8280548282559060005260206000209081019282156110a8579160200282015b828111156110a75782518260006101000a81548173ffffffffffffffffffffffffffffffffffffffff021916908373ffffffffffffffffffffffffffffffffffffffff1602179055509160200191906001019061104f565b5b5090506110b5919061118c565b5090565b8280548282559060005260206000209081019282156110f5579160200282015b828111156110f45782518255916020019190600101906110d9565b5b509050611102919061118c565b5090565b82805461111290611b98565b90600052602060002090601f016020900481019282611134576000855561117b565b82601f1061114d57805160ff191683800117855561117b565b8280016001018555821561117b579182015b8281111561117a57825182559160200191906001019061115f565b5b509050611188919061118c565b5090565b5b808211156111a557600081600090555060010161118d565b5090565b6000819050919050565b6111bc816111a9565b82525050565b60006020820190506111d760008301846111b3565b92915050565b600081519050919050565b600082825260208201905092915050565b6000819050602082019050919050565b600073ffffffffffffffffffffffffffffffffffffffff82169050919050565b600061123482611209565b9050919050565b61124481611229565b82525050565b6000611256838361123b565b60208301905092915050565b6000602082019050919050565b600061127a826111dd565b61128481856111e8565b935061128f836111f9565b8060005b838110156112c05781516112a7888261124a565b97506112b283611262565b925050600181019050611293565b5085935050505092915050565b600060208201905081810360008301526112e7818461126f565b905092915050565b6000604051905090565b600080fd5b600080fd5b61130c816111a9565b811461131757600080fd5b50565b60008135905061132981611303565b92915050565b600060208284031215611345576113446112f9565b5b60006113538482850161131a565b91505092915050565b61136581611229565b82525050565b6000602082019050611380600083018461135c565b92915050565b61138f81611229565b811461139a57600080fd5b50565b6000813590506113ac81611386565b92915050565b6000602082840312156113c8576113c76112f9565b5b60006113d68482850161139d565b91505092915050565b7f4e487b7100000000000000000000000000000000000000000000000000000000600052602160045260246000fd5b6004811061141f5761141e6113df565b5b50565b60008190506114308261140e565b919050565b600061144082611422565b9050919050565b61145081611435565b82525050565b600060208201905061146b6000830184611447565b92915050565b600080fd5b600080fd5b6000601f19601f8301169050919050565b7f4e487b7100000000000000000000000000000000000000000000000000000000600052604160045260246000fd5b6114c48261147b565b810181811067ffffffffffffffff821117156114e3576114e261148c565b5b80604052505050565b60006114f66112ef565b905061150282826114bb565b919050565b600067ffffffffffffffff8211156115225761152161148c565b5b61152b8261147b565b9050602081019050919050565b82818337600083830152505050565b600061155a61155584611507565b6114ec565b90508281526020810184848401111561157657611575611476565b5b611581848285611538565b509392505050565b600082601f83011261159e5761159d611471565b5b81356115ae848260208601611547565b91505092915050565b6000806000606084860312156115d0576115cf6112f9565b5b60006115de8682870161131a565b935050602084013567ffffffffffffffff8111156115ff576115fe6112fe565b5b61160b86828701611589565b925050604084013567ffffffffffffffff81111561162c5761162b6112fe565b5b61163886828701611589565b9150509250925092565b600081519050919050565b600082825260208201905092915050565b60005b8381101561167c578082015181840152602081019050611661565b8381111561168b576000848401525b50505050565b600061169c82611642565b6116a6818561164d565b93506116b681856020860161165e565b6116bf8161147b565b840191505092915050565b60006060820190506116df60008301866111b3565b81810360208301526116f18185611691565b905081810360408301526117058184611691565b9050949350505050565b7f496e76616c696420737461746500000000000000000000000000000000000000600082015250565b6000611745600d8361164d565b91506117508261170f565b602082019050919050565b6000602082019050818103600083015261177481611738565b9050919050565b60008151905061178a81611303565b92915050565b6000602082840312156117a6576117a56112f9565b5b60006117b48482850161177b565b91505092915050565b600067ffffffffffffffff8211156117d8576117d761148c565b5b602082029050602081019050919050565b600080fd5b6000815190506117fd81611386565b92915050565b6000611816611811846117bd565b6114ec565b90508083825260208201905060208402830185811115611839576118386117e9565b5b835b81811015611862578061184e88826117ee565b84526020840193505060208101905061183b565b5050509392505050565b600082601f83011261188157611880611471565b5b8151611891848260208601611803565b91505092915050565b6000602082840312156118b0576118af6112f9565b5b600082015167ffffffffffffffff8111156118ce576118cd6112fe565b5b6118da8482850161186c565b91505092915050565b6000819050919050565b6000819050919050565b600061191261190d611908846118e3565b6118ed565b6111a9565b9050919050565b611922816118f7565b82525050565b600060408201905061193d600083018561135c565b61194a6020830184611919565b9392505050565b600067ffffffffffffffff82111561196c5761196b61148c565b5b602082029050602081019050919050565b600061199061198b84611951565b6114ec565b905080838252602082019050602084028301858111156119b3576119b26117e9565b5b835b818110156119dc57806119c8888261177b565b8452602084019350506020810190506119b5565b5050509392505050565b600082601f8301126119fb576119fa611471565b5b8151611a0b84826020860161197d565b91505092915050565b600060208284031215611a2a57611a296112f9565b5b600082015167ffffffffffffffff811115611a4857611a476112fe565b5b611a54848285016119e6565b91505092915050565b6000819050919050565b6000611a82611a7d611a7884611a5d565b6118ed565b6111a9565b9050919050565b611a9281611a67565b82525050565b6000604082019050611aad600083018561135c565b611aba6020830184611a89565b9392505050565b7f4f6e6c792041646d696e2063616e2063616c6c20746869730000000000000000600082015250565b6000611af760188361164d565b9150611b0282611ac1565b602082019050919050565b60006020820190508181036000830152611b2681611aea565b9050919050565b6000819050919050565b611b48611b43826111a9565b611b2d565b82525050565b6000611b5a8284611b37565b60208201915081905092915050565b7f4e487b7100000000000000000000000000000000000000000000000000000000600052602260045260246000fd5b60006002820490506001821680611bb057607f821691505b60208210811415611bc457611bc3611b69565b5b50919050565b600081905092915050565b60008190508160005260206000209050919050565b60008154611bf781611b98565b611c018186611bca565b94506001821660008114611c1c5760018114611c2d57611c60565b60ff19831686528186019350611c60565b611c3685611bd5565b60005b83811015611c5857815481890152600182019150602081019050611c39565b838801955050505b50505092915050565b6000611c758284611bea565b915081905092915050565b6000611c8b82611642565b611c958185611bca565b9350611ca581856020860161165e565b80840191505092915050565b6000611cbd8284611c80565b915081905092915050565b6000819050919050565b6000611ced611ce8611ce384611cc8565b6118ed565b6111a9565b9050919050565b611cfd81611cd2565b82525050565b6000604082019050611d18600083018561135c565b611d256020830184611cf4565b939250505056fea2646970667358221220ade9825778d02b8f49079d9d080748ab95b035549122376e9ae2f124208015d364736f6c634300080a0033",
  "immutableReferences": {},
  "source": "pragma solidity ^0.8.0;\r\n// SPDX-License-Identifier: GPL-3.0\r\n// Interface of Main contract to call from Session contract\r\ncontract Main {\r\n    function addSession(address session) public {}\r\n    function register( string memory _name, string memory _email) public{}\r\n    function update(string memory _newName, string memory _newEmail) public{}\r\n    function statusSession(address _session,uint _status) public {}\r\n    function price(address _session, uint _price) public{}\r\n    function getDetailSession(address _addr) public view returns(uint,uint){}\r\n    function getProposedPrice(address _session)public returns(uint){}\r\n    function closeSession(address _addr)public {}\r\n    function getLastPrice(address _addr) external returns(uint){}\r\n    function getListOfPar(address _session)public returns(address [] memory){}\r\n    function getGivenPrices(address _session) public  returns(uint [] memory){}\r\n    function getProfile(uint _id) public returns(uint ,address,string memory,string memory){}\r\n    \r\n}\r\n\r\ncontract Session {\r\n    // Variable to hold Main Contract Address when create new Session Contract\r\n    address public mainContract;\r\n    // Variable to hold Main Contract instance to call functions from Main\r\n    Main MainContract;\r\n\r\n    // TODO: Variables\r\n     \r\n    address public admin;\r\n    struct Item{\r\n        uint itemID ;\r\n        string itemName;\r\n        string description;\r\n    }\r\n    \r\n    Item public item;\r\n    uint public proposedPrice;\r\n    uint public lastPrice;\r\n    enum State{ CREATED, STARTED, STOPPED, CLOSED }\r\n    State public state = State.CREATED;    \r\n    address [] public participants;\r\n    uint [] public givenPrices;\r\n    address[] public imageHashes;\r\n    constructor(address _mainContract,uint _itemID, string memory _itemName, string memory _description) public {\r\n        // Get Main Contract instance\r\n        mainContract = _mainContract;\r\n        MainContract = Main(_mainContract);\r\n        \r\n        // TODO: Init Session contract\r\n        admin = msg.sender;\r\n        item.itemID = _itemID;\r\n        item.itemName = _itemName;\r\n        item.description = _description;\r\n        \r\n        // Call Main Contract function to link current contract.\r\n        MainContract.addSession(address(this));\r\n    }\r\n\r\n    // TODO: Functions\r\n    function setHash(address _imageHash) public{\r\n        imageHashes.push(_imageHash);\r\n\r\n    }\r\n    function getHash() public view returns(address [] memory ){\r\n        return imageHashes;\r\n    }\r\n    function startSession() public inState(State.CREATED) onlyAdmin{\r\n        state = State.STARTED;\r\n        MainContract.statusSession(address(this),1);\r\n    }\r\n    \r\n    function updateProductInfo(uint _newItemId, string memory _newName, string memory _newDescription) public onlyAdmin{\r\n        if(keccak256(abi.encodePacked(_newItemId)) != keccak256(abi.encodePacked(item.itemID))){\r\n           item.itemID = _newItemId;\r\n        }\r\n        if(keccak256(abi.encodePacked(_newName)) != keccak256(abi.encodePacked(item.itemName))){\r\n         item.itemName = _newName;\r\n        }\r\n        if(keccak256(abi.encodePacked(_newDescription)) != keccak256(abi.encodePacked(item.description))){\r\n            item.description = _newDescription;\r\n        }\r\n    }\r\n    function getProposedPrice()public inState(State.STARTED) returns(uint){\r\n        proposedPrice = MainContract.getProposedPrice(address(this));\r\n    }   \r\n    function stopSession()public inState(State.STARTED){\r\n        MainContract.closeSession(address(this));\r\n        state = State.STOPPED;\r\n        MainContract.statusSession(address(this),2);\r\n    }\r\n    function getPriceAndClose()public inState(State.STOPPED) returns(uint){\r\n        lastPrice= MainContract.getLastPrice(address(this));\r\n        state = State.CLOSED;\r\n        MainContract.statusSession(address(this),3);\r\n    }\r\n    function getListOfPar()public returns(address[] memory){\r\n        participants= MainContract.getListOfPar(address(this));\r\n        \r\n    }\r\n    function getGivenPrices()public{\r\n        givenPrices = MainContract.getGivenPrices(address(this));\r\n    }\r\n    modifier onlyAdmin(){\r\n        require(msg.sender == admin, \"Only Admin can call this\");\r\n        _;\r\n    }\r\n    modifier inState(State _state){\r\n        require(state == _state,'Invalid state');\r\n        _;\r\n    }\r\n}\r\n",
  "sourcePath": "C:\\Users\\Admin\\Desktop\\bai moi\\contract\\contracts\\Session.sol",
  "compiler": {
    "name": "solc",
    "version": "0.8.10+commit.fc410830.Emscripten.clang"
  },
  "schemaVersion": "3.4.3",
  "updatedAt": "2022-02-02T15:47:41.949Z",
  "devdoc": {
    "kind": "dev",
    "methods": {},
    "version": 1
  },
  "userdoc": {
    "kind": "user",
    "methods": {},
    "version": 1
  }
}