{
  "contractName": "Main",
  "abi": [
    {
      "inputs": [
        {
          "internalType": "address",
          "name": "session",
          "type": "address"
        }
      ],
      "name": "addSession",
      "outputs": [],
      "stateMutability": "nonpayable",
      "type": "function"
    },
    {
      "inputs": [
        {
          "internalType": "string",
          "name": "_name",
          "type": "string"
        },
        {
          "internalType": "string",
          "name": "_email",
          "type": "string"
        }
      ],
      "name": "register",
      "outputs": [],
      "stateMutability": "nonpayable",
      "type": "function"
    },
    {
      "inputs": [
        {
          "internalType": "string",
          "name": "_newName",
          "type": "string"
        },
        {
          "internalType": "string",
          "name": "_newEmail",
          "type": "string"
        }
      ],
      "name": "update",
      "outputs": [],
      "stateMutability": "nonpayable",
      "type": "function"
    },
    {
      "inputs": [
        {
          "internalType": "address",
          "name": "_session",
          "type": "address"
        },
        {
          "internalType": "uint256",
          "name": "_status",
          "type": "uint256"
        }
      ],
      "name": "statusSession",
      "outputs": [],
      "stateMutability": "nonpayable",
      "type": "function"
    },
    {
      "inputs": [
        {
          "internalType": "address",
          "name": "_session",
          "type": "address"
        },
        {
          "internalType": "uint256",
          "name": "_price",
          "type": "uint256"
        }
      ],
      "name": "price",
      "outputs": [],
      "stateMutability": "nonpayable",
      "type": "function"
    },
    {
      "inputs": [
        {
          "internalType": "address",
          "name": "_addr",
          "type": "address"
        }
      ],
      "name": "getDetailSession",
      "outputs": [
        {
          "internalType": "uint256",
          "name": "",
          "type": "uint256"
        },
        {
          "internalType": "uint256",
          "name": "",
          "type": "uint256"
        }
      ],
      "stateMutability": "view",
      "type": "function"
    },
    {
      "inputs": [
        {
          "internalType": "address",
          "name": "_session",
          "type": "address"
        }
      ],
      "name": "getProposedPrice",
      "outputs": [
        {
          "internalType": "uint256",
          "name": "",
          "type": "uint256"
        }
      ],
      "stateMutability": "nonpayable",
      "type": "function"
    },
    {
      "inputs": [
        {
          "internalType": "address",
          "name": "_addr",
          "type": "address"
        }
      ],
      "name": "closeSession",
      "outputs": [],
      "stateMutability": "nonpayable",
      "type": "function"
    },
    {
      "inputs": [
        {
          "internalType": "address",
          "name": "_addr",
          "type": "address"
        }
      ],
      "name": "getLastPrice",
      "outputs": [
        {
          "internalType": "uint256",
          "name": "",
          "type": "uint256"
        }
      ],
      "stateMutability": "nonpayable",
      "type": "function"
    },
    {
      "inputs": [
        {
          "internalType": "address",
          "name": "_session",
          "type": "address"
        }
      ],
      "name": "getListOfPar",
      "outputs": [
        {
          "internalType": "address[]",
          "name": "",
          "type": "address[]"
        }
      ],
      "stateMutability": "nonpayable",
      "type": "function"
    },
    {
      "inputs": [
        {
          "internalType": "address",
          "name": "_session",
          "type": "address"
        }
      ],
      "name": "getGivenPrices",
      "outputs": [
        {
          "internalType": "uint256[]",
          "name": "",
          "type": "uint256[]"
        }
      ],
      "stateMutability": "nonpayable",
      "type": "function"
    },
    {
      "inputs": [
        {
          "internalType": "uint256",
          "name": "_id",
          "type": "uint256"
        }
      ],
      "name": "getProfile",
      "outputs": [
        {
          "internalType": "uint256",
          "name": "",
          "type": "uint256"
        },
        {
          "internalType": "address",
          "name": "",
          "type": "address"
        },
        {
          "internalType": "string",
          "name": "",
          "type": "string"
        },
        {
          "internalType": "string",
          "name": "",
          "type": "string"
        }
      ],
      "stateMutability": "nonpayable",
      "type": "function"
    }
  ],
  "bytecode": "0x608060405234801561001057600080fd5b506108ff806100206000396000f3fe608060405234801561001057600080fd5b50600436106100b45760003560e01c8063ad9b802411610071578063ad9b8024146101b2578063c692fc74146101ce578063deeb3e70146101fe578063f08f4f641461021a578063f390dd861461024d578063f4c84d1914610269576100b4565b806327be24ee146100b957806327eaba5a146100d55780633fbb4067146101055780633ffbd47f146101365780634188b458146101525780634550480514610182575b600080fd5b6100d360048036038101906100ce919061033e565b610285565b005b6100ef60048036038101906100ea919061033e565b610288565b6040516100fc9190610433565b60405180910390f35b61011f600480360381019061011a919061033e565b61028f565b60405161012d929190610464565b60405180910390f35b610150600480360381019061014b91906105d3565b610297565b005b61016c6004803603810190610167919061033e565b61029b565b6040516101799190610709565b60405180910390f35b61019c6004803603810190610197919061033e565b6102a2565b6040516101a9919061072b565b60405180910390f35b6101cc60048036038101906101c79190610772565b6102a9565b005b6101e860048036038101906101e3919061033e565b6102ad565b6040516101f5919061072b565b60405180910390f35b61021860048036038101906102139190610772565b6102b4565b005b610234600480360381019061022f91906107b2565b6102b8565b6040516102449493929190610876565b60405180910390f35b6102676004803603810190610262919061033e565b6102c5565b005b610283600480360381019061027e91906105d3565b6102c8565b005b50565b6060919050565b600080915091565b5050565b6060919050565b6000919050565b5050565b6000919050565b5050565b6000806060809193509193565b50565b5050565b6000604051905090565b600080fd5b600080fd5b600073ffffffffffffffffffffffffffffffffffffffff82169050919050565b600061030b826102e0565b9050919050565b61031b81610300565b811461032657600080fd5b50565b60008135905061033881610312565b92915050565b600060208284031215610354576103536102d6565b5b600061036284828501610329565b91505092915050565b600081519050919050565b600082825260208201905092915050565b6000819050602082019050919050565b6000819050919050565b6103aa81610397565b82525050565b60006103bc83836103a1565b60208301905092915050565b6000602082019050919050565b60006103e08261036b565b6103ea8185610376565b93506103f583610387565b8060005b8381101561042657815161040d88826103b0565b9750610418836103c8565b9250506001810190506103f9565b5085935050505092915050565b6000602082019050818103600083015261044d81846103d5565b905092915050565b61045e81610397565b82525050565b60006040820190506104796000830185610455565b6104866020830184610455565b9392505050565b600080fd5b600080fd5b6000601f19601f8301169050919050565b7f4e487b7100000000000000000000000000000000000000000000000000000000600052604160045260246000fd5b6104e082610497565b810181811067ffffffffffffffff821117156104ff576104fe6104a8565b5b80604052505050565b60006105126102cc565b905061051e82826104d7565b919050565b600067ffffffffffffffff82111561053e5761053d6104a8565b5b61054782610497565b9050602081019050919050565b82818337600083830152505050565b600061057661057184610523565b610508565b90508281526020810184848401111561059257610591610492565b5b61059d848285610554565b509392505050565b600082601f8301126105ba576105b961048d565b5b81356105ca848260208601610563565b91505092915050565b600080604083850312156105ea576105e96102d6565b5b600083013567ffffffffffffffff811115610608576106076102db565b5b610614858286016105a5565b925050602083013567ffffffffffffffff811115610635576106346102db565b5b610641858286016105a5565b9150509250929050565b600081519050919050565b600082825260208201905092915050565b6000819050602082019050919050565b61068081610300565b82525050565b60006106928383610677565b60208301905092915050565b6000602082019050919050565b60006106b68261064b565b6106c08185610656565b93506106cb83610667565b8060005b838110156106fc5781516106e38882610686565b97506106ee8361069e565b9250506001810190506106cf565b5085935050505092915050565b6000602082019050818103600083015261072381846106ab565b905092915050565b60006020820190506107406000830184610455565b92915050565b61074f81610397565b811461075a57600080fd5b50565b60008135905061076c81610746565b92915050565b60008060408385031215610789576107886102d6565b5b600061079785828601610329565b92505060206107a88582860161075d565b9150509250929050565b6000602082840312156107c8576107c76102d6565b5b60006107d68482850161075d565b91505092915050565b6107e881610300565b82525050565b600081519050919050565b600082825260208201905092915050565b60005b8381101561082857808201518184015260208101905061080d565b83811115610837576000848401525b50505050565b6000610848826107ee565b61085281856107f9565b935061086281856020860161080a565b61086b81610497565b840191505092915050565b600060808201905061088b6000830187610455565b61089860208301866107df565b81810360408301526108aa818561083d565b905081810360608301526108be818461083d565b90509594505050505056fea2646970667358221220f265e281427e86ce026fec9a933a6b5f8aa676cd81612ce3f48118967ca3377d64736f6c634300080a0033",
  "immutableReferences": {},
  "source": "pragma solidity ^0.8.0;\r\n// SPDX-License-Identifier: GPL-3.0\r\n// Interface of Main contract to call from Session contract\r\ncontract Main {\r\n    function addSession(address session) public {}\r\n    function register( string memory _name, string memory _email) public{}\r\n    function update(string memory _newName, string memory _newEmail) public{}\r\n    function statusSession(address _session,uint _status) public {}\r\n    function price(address _session, uint _price) public{}\r\n    function getDetailSession(address _addr) public view returns(uint,uint){}\r\n    function getProposedPrice(address _session)public returns(uint){}\r\n    function closeSession(address _addr)public {}\r\n    function getLastPrice(address _addr) external returns(uint){}\r\n    function getListOfPar(address _session)public returns(address [] memory){}\r\n    function getGivenPrices(address _session) public  returns(uint [] memory){}\r\n    function getProfile(uint _id) public returns(uint ,address,string memory,string memory){}\r\n    \r\n}\r\n\r\ncontract Session {\r\n    // Variable to hold Main Contract Address when create new Session Contract\r\n    address public mainContract;\r\n    // Variable to hold Main Contract instance to call functions from Main\r\n    Main MainContract;\r\n\r\n    // TODO: Variables\r\n     \r\n    address public admin;\r\n    struct Item{\r\n        uint itemID ;\r\n        string itemName;\r\n        string description;\r\n    }\r\n    \r\n    Item public item;\r\n    uint public proposedPrice;\r\n    uint public lastPrice;\r\n    enum State{ CREATED, STARTED, STOPPED, CLOSED }\r\n    State public state = State.CREATED;    \r\n    address [] public participants;\r\n    uint [] public givenPrices;\r\n    address[] public imageHashes;\r\n    constructor(address _mainContract,uint _itemID, string memory _itemName, string memory _description) public {\r\n        // Get Main Contract instance\r\n        mainContract = _mainContract;\r\n        MainContract = Main(_mainContract);\r\n        \r\n        // TODO: Init Session contract\r\n        admin = msg.sender;\r\n        item.itemID = _itemID;\r\n        item.itemName = _itemName;\r\n        item.description = _description;\r\n        \r\n        // Call Main Contract function to link current contract.\r\n        MainContract.addSession(address(this));\r\n    }\r\n\r\n    // TODO: Functions\r\n    function setHash(address _imageHash) public{\r\n        imageHashes.push(_imageHash);\r\n\r\n    }\r\n    function getHash() public view returns(address [] memory ){\r\n        return imageHashes;\r\n    }\r\n    function startSession() public inState(State.CREATED) onlyAdmin{\r\n        state = State.STARTED;\r\n        MainContract.statusSession(address(this),1);\r\n    }\r\n    \r\n    function updateProductInfo(uint _newItemId, string memory _newName, string memory _newDescription) public onlyAdmin{\r\n        if(keccak256(abi.encodePacked(_newItemId)) != keccak256(abi.encodePacked(item.itemID))){\r\n           item.itemID = _newItemId;\r\n        }\r\n        if(keccak256(abi.encodePacked(_newName)) != keccak256(abi.encodePacked(item.itemName))){\r\n         item.itemName = _newName;\r\n        }\r\n        if(keccak256(abi.encodePacked(_newDescription)) != keccak256(abi.encodePacked(item.description))){\r\n            item.description = _newDescription;\r\n        }\r\n    }\r\n    function getProposedPrice()public inState(State.STARTED) returns(uint){\r\n        proposedPrice = MainContract.getProposedPrice(address(this));\r\n    }   \r\n    function stopSession()public inState(State.STARTED){\r\n        MainContract.closeSession(address(this));\r\n        state = State.STOPPED;\r\n        MainContract.statusSession(address(this),2);\r\n    }\r\n    function getPriceAndClose()public inState(State.STOPPED) returns(uint){\r\n        lastPrice= MainContract.getLastPrice(address(this));\r\n        state = State.CLOSED;\r\n        MainContract.statusSession(address(this),3);\r\n    }\r\n    function getListOfPar()public returns(address[] memory){\r\n        participants= MainContract.getListOfPar(address(this));\r\n        \r\n    }\r\n    function getGivenPrices()public{\r\n        givenPrices = MainContract.getGivenPrices(address(this));\r\n    }\r\n    modifier onlyAdmin(){\r\n        require(msg.sender == admin, \"Only Admin can call this\");\r\n        _;\r\n    }\r\n    modifier inState(State _state){\r\n        require(state == _state,'Invalid state');\r\n        _;\r\n    }\r\n}\r\n",
  "sourcePath": "C:\\Users\\Admin\\Desktop\\bai moi\\contract\\contracts\\Session.sol",
  "compiler": {
    "name": "solc",
    "version": "0.8.10+commit.fc410830.Emscripten.clang"
  },
  "schemaVersion": "3.4.3",
  "updatedAt": "2022-02-02T15:47:41.854Z",
  "devdoc": {
    "kind": "dev",
    "methods": {},
    "version": 1
  },
  "userdoc": {
    "kind": "user",
    "methods": {},
    "version": 1
  }
}