{
  "contractName": "Main",
  "abi": [
    {
      "inputs": [],
      "stateMutability": "nonpayable",
      "type": "constructor"
    },
    {
      "anonymous": false,
      "inputs": [
        {
          "indexed": false,
          "internalType": "uint256",
          "name": "lastPrice",
          "type": "uint256"
        }
      ],
      "name": "CloseSession",
      "type": "event"
    },
    {
      "anonymous": false,
      "inputs": [
        {
          "indexed": false,
          "internalType": "uint256",
          "name": "proposedPrice",
          "type": "uint256"
        }
      ],
      "name": "ProposedPrice",
      "type": "event"
    },
    {
      "anonymous": false,
      "inputs": [
        {
          "indexed": false,
          "internalType": "string",
          "name": "name",
          "type": "string"
        },
        {
          "indexed": false,
          "internalType": "string",
          "name": "email",
          "type": "string"
        }
      ],
      "name": "Register",
      "type": "event"
    },
    {
      "anonymous": false,
      "inputs": [
        {
          "indexed": false,
          "internalType": "string",
          "name": "name",
          "type": "string"
        },
        {
          "indexed": false,
          "internalType": "string",
          "name": "email",
          "type": "string"
        }
      ],
      "name": "UpdateInfo",
      "type": "event"
    },
    {
      "inputs": [
        {
          "internalType": "uint256",
          "name": "",
          "type": "uint256"
        }
      ],
      "name": "Iparticipants",
      "outputs": [
        {
          "internalType": "uint256",
          "name": "participantID",
          "type": "uint256"
        },
        {
          "internalType": "string",
          "name": "name",
          "type": "string"
        },
        {
          "internalType": "string",
          "name": "email",
          "type": "string"
        },
        {
          "internalType": "uint256",
          "name": "deviation",
          "type": "uint256"
        },
        {
          "internalType": "uint256",
          "name": "deviationNew",
          "type": "uint256"
        },
        {
          "internalType": "uint256",
          "name": "sessionNumber",
          "type": "uint256"
        },
        {
          "internalType": "address",
          "name": "addr",
          "type": "address"
        }
      ],
      "stateMutability": "view",
      "type": "function",
      "constant": true
    },
    {
      "inputs": [],
      "name": "admin",
      "outputs": [
        {
          "internalType": "address",
          "name": "",
          "type": "address"
        }
      ],
      "stateMutability": "view",
      "type": "function",
      "constant": true
    },
    {
      "inputs": [],
      "name": "count",
      "outputs": [
        {
          "internalType": "uint256",
          "name": "",
          "type": "uint256"
        }
      ],
      "stateMutability": "view",
      "type": "function",
      "constant": true
    },
    {
      "inputs": [
        {
          "internalType": "address",
          "name": "",
          "type": "address"
        }
      ],
      "name": "detailSession",
      "outputs": [
        {
          "internalType": "address",
          "name": "addr",
          "type": "address"
        },
        {
          "internalType": "uint256",
          "name": "totalPrice",
          "type": "uint256"
        },
        {
          "internalType": "uint256",
          "name": "totalPercent",
          "type": "uint256"
        },
        {
          "internalType": "uint256",
          "name": "proposedPrice",
          "type": "uint256"
        },
        {
          "internalType": "uint256",
          "name": "lastPrice",
          "type": "uint256"
        },
        {
          "internalType": "uint256",
          "name": "status",
          "type": "uint256"
        }
      ],
      "stateMutability": "view",
      "type": "function",
      "constant": true
    },
    {
      "inputs": [
        {
          "internalType": "address",
          "name": "",
          "type": "address"
        }
      ],
      "name": "participants",
      "outputs": [
        {
          "internalType": "uint256",
          "name": "participantID",
          "type": "uint256"
        },
        {
          "internalType": "string",
          "name": "name",
          "type": "string"
        },
        {
          "internalType": "string",
          "name": "email",
          "type": "string"
        },
        {
          "internalType": "uint256",
          "name": "deviation",
          "type": "uint256"
        },
        {
          "internalType": "uint256",
          "name": "deviationNew",
          "type": "uint256"
        },
        {
          "internalType": "uint256",
          "name": "sessionNumber",
          "type": "uint256"
        },
        {
          "internalType": "address",
          "name": "addr",
          "type": "address"
        }
      ],
      "stateMutability": "view",
      "type": "function",
      "constant": true
    },
    {
      "inputs": [
        {
          "internalType": "uint256",
          "name": "",
          "type": "uint256"
        }
      ],
      "name": "sessions",
      "outputs": [
        {
          "internalType": "address",
          "name": "",
          "type": "address"
        }
      ],
      "stateMutability": "view",
      "type": "function",
      "constant": true
    },
    {
      "inputs": [
        {
          "internalType": "address",
          "name": "_session",
          "type": "address"
        }
      ],
      "name": "addSession",
      "outputs": [],
      "stateMutability": "nonpayable",
      "type": "function"
    },
    {
      "inputs": [],
      "name": "getSessions",
      "outputs": [
        {
          "internalType": "address[]",
          "name": "",
          "type": "address[]"
        },
        {
          "internalType": "uint256",
          "name": "",
          "type": "uint256"
        }
      ],
      "stateMutability": "view",
      "type": "function",
      "constant": true
    },
    {
      "inputs": [],
      "name": "getSessionNum",
      "outputs": [
        {
          "internalType": "uint256",
          "name": "",
          "type": "uint256"
        }
      ],
      "stateMutability": "view",
      "type": "function",
      "constant": true
    },
    {
      "inputs": [],
      "name": "getAdminInfo",
      "outputs": [
        {
          "internalType": "address",
          "name": "",
          "type": "address"
        }
      ],
      "stateMutability": "view",
      "type": "function",
      "constant": true
    },
    {
      "inputs": [
        {
          "internalType": "string",
          "name": "_name",
          "type": "string"
        },
        {
          "internalType": "string",
          "name": "_email",
          "type": "string"
        }
      ],
      "name": "register",
      "outputs": [],
      "stateMutability": "nonpayable",
      "type": "function"
    },
    {
      "inputs": [
        {
          "internalType": "string",
          "name": "_newName",
          "type": "string"
        },
        {
          "internalType": "string",
          "name": "_newEmail",
          "type": "string"
        }
      ],
      "name": "update",
      "outputs": [],
      "stateMutability": "nonpayable",
      "type": "function"
    },
    {
      "inputs": [
        {
          "internalType": "address",
          "name": "_session",
          "type": "address"
        },
        {
          "internalType": "uint256",
          "name": "_status",
          "type": "uint256"
        }
      ],
      "name": "statusSession",
      "outputs": [],
      "stateMutability": "nonpayable",
      "type": "function"
    },
    {
      "inputs": [
        {
          "internalType": "address",
          "name": "_session",
          "type": "address"
        },
        {
          "internalType": "uint256",
          "name": "_price",
          "type": "uint256"
        }
      ],
      "name": "price",
      "outputs": [],
      "stateMutability": "nonpayable",
      "type": "function"
    },
    {
      "inputs": [
        {
          "internalType": "address",
          "name": "_session",
          "type": "address"
        }
      ],
      "name": "getProposedPrice",
      "outputs": [
        {
          "internalType": "uint256",
          "name": "",
          "type": "uint256"
        }
      ],
      "stateMutability": "view",
      "type": "function",
      "constant": true
    },
    {
      "inputs": [
        {
          "internalType": "address",
          "name": "_session",
          "type": "address"
        }
      ],
      "name": "calculateLastPrice",
      "outputs": [],
      "stateMutability": "nonpayable",
      "type": "function"
    },
    {
      "inputs": [
        {
          "internalType": "address",
          "name": "_session",
          "type": "address"
        }
      ],
      "name": "getLastPrice",
      "outputs": [
        {
          "internalType": "uint256",
          "name": "",
          "type": "uint256"
        }
      ],
      "stateMutability": "view",
      "type": "function",
      "constant": true
    },
    {
      "inputs": [
        {
          "internalType": "address",
          "name": "_session",
          "type": "address"
        }
      ],
      "name": "getListOfPar",
      "outputs": [
        {
          "internalType": "address[]",
          "name": "",
          "type": "address[]"
        }
      ],
      "stateMutability": "view",
      "type": "function",
      "constant": true
    },
    {
      "inputs": [
        {
          "internalType": "address",
          "name": "_session",
          "type": "address"
        }
      ],
      "name": "getGivenPrices",
      "outputs": [
        {
          "internalType": "uint256[]",
          "name": "",
          "type": "uint256[]"
        }
      ],
      "stateMutability": "view",
      "type": "function",
      "constant": true
    },
    {
      "inputs": [
        {
          "internalType": "uint256",
          "name": "_id",
          "type": "uint256"
        }
      ],
      "name": "getProfileId",
      "outputs": [
        {
          "internalType": "uint256",
          "name": "",
          "type": "uint256"
        },
        {
          "internalType": "address",
          "name": "",
          "type": "address"
        },
        {
          "internalType": "string",
          "name": "",
          "type": "string"
        },
        {
          "internalType": "string",
          "name": "",
          "type": "string"
        },
        {
          "internalType": "uint256",
          "name": "",
          "type": "uint256"
        },
        {
          "internalType": "uint256",
          "name": "",
          "type": "uint256"
        }
      ],
      "stateMutability": "view",
      "type": "function",
      "constant": true
    },
    {
      "inputs": [
        {
          "internalType": "address",
          "name": "_addr",
          "type": "address"
        }
      ],
      "name": "getProfileAdd",
      "outputs": [
        {
          "internalType": "uint256",
          "name": "",
          "type": "uint256"
        },
        {
          "internalType": "address",
          "name": "",
          "type": "address"
        },
        {
          "internalType": "string",
          "name": "",
          "type": "string"
        },
        {
          "internalType": "string",
          "name": "",
          "type": "string"
        },
        {
          "internalType": "uint256",
          "name": "",
          "type": "uint256"
        },
        {
          "internalType": "uint256",
          "name": "",
          "type": "uint256"
        }
      ],
      "stateMutability": "view",
      "type": "function",
      "constant": true
    },
    {
      "inputs": [],
      "name": "getTotalParNum",
      "outputs": [
        {
          "internalType": "uint256",
          "name": "",
          "type": "uint256"
        }
      ],
      "stateMutability": "view",
      "type": "function",
      "constant": true
    },
    {
      "inputs": [
        {
          "internalType": "address",
          "name": "_session",
          "type": "address"
        }
      ],
      "name": "getStatusSession",
      "outputs": [
        {
          "internalType": "uint256",
          "name": "",
          "type": "uint256"
        }
      ],
      "stateMutability": "view",
      "type": "function",
      "constant": true
    }
  ],
  "bytecode": "0x60806040526000604a5534801561001557600080fd5b50336000806101000a81548173ffffffffffffffffffffffffffffffffffffffff021916908373ffffffffffffffffffffffffffffffffffffffff160217905550613199806100656000396000f3fe608060405234801561001057600080fd5b506004361061014d5760003560e01c806383c4b7a3116100c3578063deeb3e701161007c578063deeb3e70146103fe578063e1570fa41461041a578063f390dd861461044f578063f4c84d191461046b578063f851a44014610487578063fb22fa6e146104a55761014d565b806383c4b7a3146103105780638a1b85ef14610340578063ad9b802414610376578063c3d5fd3914610392578063c692fc74146103b0578063dc2b71da146103e05761014d565b80634188b458116101155780634188b45814610222578063455048051461025257806349c497ec146102825780634e2ce5b4146102b757806361503e45146102d55780636bc03cf0146102f45761014d565b806306661abd1461015257806309e69ede1461017057806313303a88146101a657806327eaba5a146101d65780633ffbd47f14610206575b600080fd5b61015a6104da565b604051610167919061248c565b60405180910390f35b61018a60048036038101906101859190612519565b6104e0565b60405161019d97969594939291906125ee565b60405180910390f35b6101c060048036038101906101bb9190612519565b610652565b6040516101cd919061248c565b60405180910390f35b6101f060048036038101906101eb9190612519565b61072d565b6040516101fd9190612729565b60405180910390f35b610220600480360381019061021b9190612880565b6107c7565b005b61023c60048036038101906102379190612519565b610baf565b60405161024991906129b6565b60405180910390f35b61026c60048036038101906102679190612519565b610c7f565b604051610279919061248c565b60405180910390f35b61029c60048036038101906102979190612a04565b610ccb565b6040516102ae96959493929190612a31565b60405180910390f35b6102bf610ec7565b6040516102cc919061248c565b60405180910390f35b6102dd610ed4565b6040516102eb929190612aa0565b60405180910390f35b61030e60048036038101906103099190612519565b610f6f565b005b61032a60048036038101906103259190612a04565b6113f7565b6040516103379190612ad0565b60405180910390f35b61035a60048036038101906103559190612a04565b611436565b60405161036d97969594939291906125ee565b60405180910390f35b610390600480360381019061038b9190612aeb565b6115ae565b005b61039a611b3a565b6040516103a79190612ad0565b60405180910390f35b6103ca60048036038101906103c59190612519565b611b63565b6040516103d7919061248c565b60405180910390f35b6103e8611c34565b6040516103f5919061248c565b60405180910390f35b61041860048036038101906104139190612aeb565b611c3e565b005b610434600480360381019061042f9190612519565b611c89565b60405161044696959493929190612a31565b60405180910390f35b61046960048036038101906104649190612519565b611f6f565b005b61048560048036038101906104809190612880565b611fd5565b005b61048f612350565b60405161049c9190612ad0565b60405180910390f35b6104bf60048036038101906104ba9190612519565b612374565b6040516104d196959493929190612b2b565b60405180910390f35b604a5481565b600160205280600052604060002060009150905080600001549080600101805461050990612bbb565b80601f016020809104026020016040519081016040528092919081815260200182805461053590612bbb565b80156105825780601f1061055757610100808354040283529160200191610582565b820191906000526020600020905b81548152906001019060200180831161056557829003601f168201915b50505050509080600201805461059790612bbb565b80601f01602080910402602001604051908101604052809291908181526020018280546105c390612bbb565b80156106105780601f106105e557610100808354040283529160200191610610565b820191906000526020600020905b8154815290600101906020018083116105f357829003601f168201915b5050505050908060030154908060040154908060050154908060060160009054906101000a900473ffffffffffffffffffffffffffffffffffffffff16905087565b60008060009054906101000a900473ffffffffffffffffffffffffffffffffffffffff1673ffffffffffffffffffffffffffffffffffffffff163373ffffffffffffffffffffffffffffffffffffffff16146106e3576040517f08c379a00000000000000000000000000000000000000000000000000000000081526004016106da90612c39565b60405180910390fd5b604860008373ffffffffffffffffffffffffffffffffffffffff1673ffffffffffffffffffffffffffffffffffffffff168152602001908152602001600020600901549050919050565b6060604860008373ffffffffffffffffffffffffffffffffffffffff1673ffffffffffffffffffffffffffffffffffffffff1681526020019081526020016000206008018054806020026020016040519081016040528092919081815260200182805480156107bb57602002820191906000526020600020905b8154815260200190600101908083116107a7575b50505050509050919050565b600073ffffffffffffffffffffffffffffffffffffffff16600160003373ffffffffffffffffffffffffffffffffffffffff1673ffffffffffffffffffffffffffffffffffffffff16815260200190815260200160002060060160009054906101000a900473ffffffffffffffffffffffffffffffffffffffff1673ffffffffffffffffffffffffffffffffffffffff1614610898576040517f08c379a000000000000000000000000000000000000000000000000000000000815260040161088f90612ccb565b60405180910390fd5b6000600160003373ffffffffffffffffffffffffffffffffffffffff1673ffffffffffffffffffffffffffffffffffffffff1681526020019081526020016000209050828160010190805190602001906108f39291906123d0565b508181600201908051906020019061090c9291906123d0565b506000816003018190555060008160050181905550338160060160006101000a81548173ffffffffffffffffffffffffffffffffffffffff021916908373ffffffffffffffffffffffffffffffffffffffff160217905550604a548160000181905550826002600160003373ffffffffffffffffffffffffffffffffffffffff1673ffffffffffffffffffffffffffffffffffffffff16815260200190815260200160002060000154600a81106109c6576109c5612ceb565b5b6007020160010190805190602001906109e09291906123d0565b50816002600160003373ffffffffffffffffffffffffffffffffffffffff1673ffffffffffffffffffffffffffffffffffffffff16815260200190815260200160002060000154600a8110610a3857610a37612ceb565b5b600702016002019080519060200190610a529291906123d0565b50604a546002600160003373ffffffffffffffffffffffffffffffffffffffff1673ffffffffffffffffffffffffffffffffffffffff16815260200190815260200160002060000154600a8110610aac57610aab612ceb565b5b6007020160000181905550336002600160003373ffffffffffffffffffffffffffffffffffffffff1673ffffffffffffffffffffffffffffffffffffffff16815260200190815260200160002060000154600a8110610b0e57610b0d612ceb565b5b6007020160060160006101000a81548173ffffffffffffffffffffffffffffffffffffffff021916908373ffffffffffffffffffffffffffffffffffffffff160217905550604a6000815480929190610b6690612d49565b91905055507fd6192e29c45c85ec58ce91387dfe201b02d5d548f0ab7e5fc874df8b6600ad018160010182600201604051610ba2929190612e27565b60405180910390a1505050565b6060604860008373ffffffffffffffffffffffffffffffffffffffff1673ffffffffffffffffffffffffffffffffffffffff168152602001908152602001600020600501805480602002602001604051908101604052809291908181526020018280548015610c7357602002820191906000526020600020905b8160009054906101000a900473ffffffffffffffffffffffffffffffffffffffff1673ffffffffffffffffffffffffffffffffffffffff1681526020019060010190808311610c29575b50505050509050919050565b6000604860008373ffffffffffffffffffffffffffffffffffffffff1673ffffffffffffffffffffffffffffffffffffffff168152602001908152602001600020600301549050919050565b600080606080600080600287600a8110610ce857610ce7612ceb565b5b6007020160000154600288600a8110610d0457610d03612ceb565b5b6007020160060160009054906101000a900473ffffffffffffffffffffffffffffffffffffffff16600289600a8110610d4057610d3f612ceb565b5b6007020160010160028a600a8110610d5b57610d5a612ceb565b5b6007020160020160028b600a8110610d7657610d75612ceb565b5b600702016003015460028c600a8110610d9257610d91612ceb565b5b6007020160050154838054610da690612bbb565b80601f0160208091040260200160405190810160405280929190818152602001828054610dd290612bbb565b8015610e1f5780601f10610df457610100808354040283529160200191610e1f565b820191906000526020600020905b815481529060010190602001808311610e0257829003601f168201915b50505050509350828054610e3290612bbb565b80601f0160208091040260200160405190810160405280929190818152602001828054610e5e90612bbb565b8015610eab5780601f10610e8057610100808354040283529160200191610eab565b820191906000526020600020905b815481529060010190602001808311610e8e57829003601f168201915b5050505050925095509550955095509550955091939550919395565b6000604980549050905090565b606060006049808054905081805480602002602001604051908101604052809291908181526020018280548015610f6057602002820191906000526020600020905b8160009054906101000a900473ffffffffffffffffffffffffffffffffffffffff1673ffffffffffffffffffffffffffffffffffffffff1681526020019060010190808311610f16575b50505050509150915091509091565b6002604860008373ffffffffffffffffffffffffffffffffffffffff1673ffffffffffffffffffffffffffffffffffffffff1681526020019081526020016000206009015414610ff4576040517f08c379a0000000000000000000000000000000000000000000000000000000008152600401610feb90612eaa565b60405180910390fd5b6000604860008373ffffffffffffffffffffffffffffffffffffffff1673ffffffffffffffffffffffffffffffffffffffff16815260200190815260200160002090508060030154816004018190555060008160040154905060005b604a548110156111da578260060160008281526020019081526020016000205482106110d257816064846006016000848152602001908152602001600020548461109a9190612eca565b6110a49190612efe565b6110ae9190612f87565b600282600a81106110c2576110c1612ceb565b5b600702016004018190555061112a565b81606483856006016000858152602001908152602001600020546110f69190612eca565b6111009190612efe565b61110a9190612f87565b600282600a811061111e5761111d612ceb565b5b60070201600401819055505b600281600a811061113e5761113d612ceb565b5b600702016004015460016000600284600a811061115e5761115d612ceb565b5b6007020160060160009054906101000a900473ffffffffffffffffffffffffffffffffffffffff1673ffffffffffffffffffffffffffffffffffffffff1673ffffffffffffffffffffffffffffffffffffffff1681526020019081526020016000206004018190555080806111d290612d49565b915050611050565b5060005b604a5481101561135157600281600a81106111fc576111fb612ceb565b5b6007020160050154600282600a811061121857611217612ceb565b5b60070201600401546001600284600a811061123657611235612ceb565b5b60070201600501546112489190612eca565b600284600a811061125c5761125b612ceb565b5b600702016003015461126e9190612efe565b6112789190612fb8565b6112829190612f87565b600282600a811061129657611295612ceb565b5b6007020160030181905550600281600a81106112b5576112b4612ceb565b5b600702016003015460016000600284600a81106112d5576112d4612ceb565b5b6007020160060160009054906101000a900473ffffffffffffffffffffffffffffffffffffffff1673ffffffffffffffffffffffffffffffffffffffff1673ffffffffffffffffffffffffffffffffffffffff16815260200190815260200160002060030181905550808061134990612d49565b9150506111de565b5060005b826005018054905081116113b6578260080183600601600083815260200190815260200160002054908060018154018082558091505060019003906000526020600020016000909190919091505580806113ae90612d49565b915050611355565b507f71c2e31dde72b491e4b02270b0b15a6a4fc0dd6d696c8d0f43604a92ff10919382600401546040516113ea919061248c565b60405180910390a1505050565b6049818154811061140757600080fd5b906000526020600020016000915054906101000a900473ffffffffffffffffffffffffffffffffffffffff1681565b600281600a811061144657600080fd5b6007020160009150905080600001549080600101805461146590612bbb565b80601f016020809104026020016040519081016040528092919081815260200182805461149190612bbb565b80156114de5780601f106114b3576101008083540402835291602001916114de565b820191906000526020600020905b8154815290600101906020018083116114c157829003601f168201915b5050505050908060020180546114f390612bbb565b80601f016020809104026020016040519081016040528092919081815260200182805461151f90612bbb565b801561156c5780601f106115415761010080835404028352916020019161156c565b820191906000526020600020905b81548152906001019060200180831161154f57829003601f168201915b5050505050908060030154908060040154908060050154908060060160009054906101000a900473ffffffffffffffffffffffffffffffffffffffff16905087565b600073ffffffffffffffffffffffffffffffffffffffff16600160003373ffffffffffffffffffffffffffffffffffffffff1673ffffffffffffffffffffffffffffffffffffffff16815260200190815260200160002060060160009054906101000a900473ffffffffffffffffffffffffffffffffffffffff1673ffffffffffffffffffffffffffffffffffffffff161415611680576040517f08c379a00000000000000000000000000000000000000000000000000000000081526004016116779061305a565b60405180910390fd5b6001604860008473ffffffffffffffffffffffffffffffffffffffff1673ffffffffffffffffffffffffffffffffffffffff1681526020019081526020016000206009015414611705576040517f08c379a00000000000000000000000000000000000000000000000000000000081526004016116fc90612eaa565b60405180910390fd5b81604860008473ffffffffffffffffffffffffffffffffffffffff1673ffffffffffffffffffffffffffffffffffffffff16815260200190815260200160002060000160006101000a81548173ffffffffffffffffffffffffffffffffffffffff021916908373ffffffffffffffffffffffffffffffffffffffff1602179055506000600160003373ffffffffffffffffffffffffffffffffffffffff1673ffffffffffffffffffffffffffffffffffffffff16815260200190815260200160002090506000604860008573ffffffffffffffffffffffffffffffffffffffff1673ffffffffffffffffffffffffffffffffffffffff168152602001908152602001600020905082816006016000846000015481526020019081526020016000205410156118925760008160060160008460000154815260200190815260200160002054846118549190612eca565b9050826003015460646118679190612eca565b816118729190612efe565b8260010160008282546118859190612fb8565b92505081905550506118f3565b60008382600601600085600001548152602001908152602001600020546118b99190612eca565b9050826003015460646118cc9190612eca565b816118d79190612efe565b8260010160008282546118ea9190612eca565b92505081905550505b604860008573ffffffffffffffffffffffffffffffffffffffff1673ffffffffffffffffffffffffffffffffffffffff16815260200190815260200160002060070160003373ffffffffffffffffffffffffffffffffffffffff1673ffffffffffffffffffffffffffffffffffffffff1681526020019081526020016000208390806001815401808255809150506001900390600052602060002001600090919091909150556000826003015460646119ac9190612eca565b905060018260070160003373ffffffffffffffffffffffffffffffffffffffff1673ffffffffffffffffffffffffffffffffffffffff168152602001908152602001600020805490501415611abe5780826002016000828254611a0f9190612fb8565b92505081905550826005016000815480929190611a2b90612d49565b9190505550826005015460028460000154600a8110611a4d57611a4c612ceb565b5b600702016005018190555081600501339080600181540180825580915050600190039060005260206000200160009091909190916101000a81548173ffffffffffffffffffffffffffffffffffffffff021916908373ffffffffffffffffffffffffffffffffffffffff1602179055505b81600201548260010154611ad29190612f87565b82600301819055508382600601600085600001548152602001908152602001600020819055507f6155605be97078dd7b10179a8356b2c862a8fdeef84830f425a40e03a45004728260030154604051611b2b919061248c565b60405180910390a15050505050565b60008060009054906101000a900473ffffffffffffffffffffffffffffffffffffffff16905090565b60006003604860008473ffffffffffffffffffffffffffffffffffffffff1673ffffffffffffffffffffffffffffffffffffffff1681526020019081526020016000206009015414611bea576040517f08c379a0000000000000000000000000000000000000000000000000000000008152600401611be190612eaa565b60405180910390fd5b604860008373ffffffffffffffffffffffffffffffffffffffff1673ffffffffffffffffffffffffffffffffffffffff168152602001908152602001600020600401549050919050565b6000604a54905090565b80604860008473ffffffffffffffffffffffffffffffffffffffff1673ffffffffffffffffffffffffffffffffffffffff168152602001908152602001600020600901819055505050565b600080606080600080600160008873ffffffffffffffffffffffffffffffffffffffff1673ffffffffffffffffffffffffffffffffffffffff16815260200190815260200160002060000154600160008973ffffffffffffffffffffffffffffffffffffffff1673ffffffffffffffffffffffffffffffffffffffff16815260200190815260200160002060060160009054906101000a900473ffffffffffffffffffffffffffffffffffffffff16600160008a73ffffffffffffffffffffffffffffffffffffffff1673ffffffffffffffffffffffffffffffffffffffff168152602001908152602001600020600101600160008b73ffffffffffffffffffffffffffffffffffffffff1673ffffffffffffffffffffffffffffffffffffffff168152602001908152602001600020600201600160008c73ffffffffffffffffffffffffffffffffffffffff1673ffffffffffffffffffffffffffffffffffffffff16815260200190815260200160002060030154600160008d73ffffffffffffffffffffffffffffffffffffffff1673ffffffffffffffffffffffffffffffffffffffff16815260200190815260200160002060050154838054611e4e90612bbb565b80601f0160208091040260200160405190810160405280929190818152602001828054611e7a90612bbb565b8015611ec75780601f10611e9c57610100808354040283529160200191611ec7565b820191906000526020600020905b815481529060010190602001808311611eaa57829003601f168201915b50505050509350828054611eda90612bbb565b80601f0160208091040260200160405190810160405280929190818152602001828054611f0690612bbb565b8015611f535780601f10611f2857610100808354040283529160200191611f53565b820191906000526020600020905b815481529060010190602001808311611f3657829003601f168201915b5050505050925095509550955095509550955091939550919395565b6049819080600181540180825580915050600190039060005260206000200160009091909190916101000a81548173ffffffffffffffffffffffffffffffffffffffff021916908373ffffffffffffffffffffffffffffffffffffffff16021790555050565b600160003373ffffffffffffffffffffffffffffffffffffffff1673ffffffffffffffffffffffffffffffffffffffff1681526020019081526020016000206001016040516020016120279190613104565b604051602081830303815290604052805190602001208260405160200161204e919061314c565b60405160208183030381529060405280519060200120146121335781600160003373ffffffffffffffffffffffffffffffffffffffff1673ffffffffffffffffffffffffffffffffffffffff16815260200190815260200160002060010190805190602001906120bf9291906123d0565b50816002600160003373ffffffffffffffffffffffffffffffffffffffff1673ffffffffffffffffffffffffffffffffffffffff16815260200190815260200160002060000154600a811061211757612116612ceb565b5b6007020160010190805190602001906121319291906123d0565b505b600160003373ffffffffffffffffffffffffffffffffffffffff1673ffffffffffffffffffffffffffffffffffffffff1681526020019081526020016000206002016040516020016121859190613104565b60405160208183030381529060405280519060200120816040516020016121ac919061314c565b60405160208183030381529060405280519060200120146122915780600160003373ffffffffffffffffffffffffffffffffffffffff1673ffffffffffffffffffffffffffffffffffffffff168152602001908152602001600020600201908051906020019061221d9291906123d0565b50806002600160003373ffffffffffffffffffffffffffffffffffffffff1673ffffffffffffffffffffffffffffffffffffffff16815260200190815260200160002060000154600a811061227557612274612ceb565b5b60070201600201908051906020019061228f9291906123d0565b505b7f4472e4d749e8a54068b22737b49ce8e094d89348e65ac4a0a6a2b4a26358e978600160003373ffffffffffffffffffffffffffffffffffffffff1673ffffffffffffffffffffffffffffffffffffffff168152602001908152602001600020600101600160003373ffffffffffffffffffffffffffffffffffffffff1673ffffffffffffffffffffffffffffffffffffffff168152602001908152602001600020600201604051612344929190612e27565b60405180910390a15050565b60008054906101000a900473ffffffffffffffffffffffffffffffffffffffff1681565b60486020528060005260406000206000915090508060000160009054906101000a900473ffffffffffffffffffffffffffffffffffffffff16908060010154908060020154908060030154908060040154908060090154905086565b8280546123dc90612bbb565b90600052602060002090601f0160209004810192826123fe5760008555612445565b82601f1061241757805160ff1916838001178555612445565b82800160010185558215612445579182015b82811115612444578251825591602001919060010190612429565b5b5090506124529190612456565b5090565b5b8082111561246f576000816000905550600101612457565b5090565b6000819050919050565b61248681612473565b82525050565b60006020820190506124a1600083018461247d565b92915050565b6000604051905090565b600080fd5b600080fd5b600073ffffffffffffffffffffffffffffffffffffffff82169050919050565b60006124e6826124bb565b9050919050565b6124f6816124db565b811461250157600080fd5b50565b600081359050612513816124ed565b92915050565b60006020828403121561252f5761252e6124b1565b5b600061253d84828501612504565b91505092915050565b600081519050919050565b600082825260208201905092915050565b60005b83811015612580578082015181840152602081019050612565565b8381111561258f576000848401525b50505050565b6000601f19601f8301169050919050565b60006125b182612546565b6125bb8185612551565b93506125cb818560208601612562565b6125d481612595565b840191505092915050565b6125e8816124db565b82525050565b600060e082019050612603600083018a61247d565b818103602083015261261581896125a6565b9050818103604083015261262981886125a6565b9050612638606083018761247d565b612645608083018661247d565b61265260a083018561247d565b61265f60c08301846125df565b98975050505050505050565b600081519050919050565b600082825260208201905092915050565b6000819050602082019050919050565b6126a081612473565b82525050565b60006126b28383612697565b60208301905092915050565b6000602082019050919050565b60006126d68261266b565b6126e08185612676565b93506126eb83612687565b8060005b8381101561271c57815161270388826126a6565b975061270e836126be565b9250506001810190506126ef565b5085935050505092915050565b6000602082019050818103600083015261274381846126cb565b905092915050565b600080fd5b600080fd5b7f4e487b7100000000000000000000000000000000000000000000000000000000600052604160045260246000fd5b61278d82612595565b810181811067ffffffffffffffff821117156127ac576127ab612755565b5b80604052505050565b60006127bf6124a7565b90506127cb8282612784565b919050565b600067ffffffffffffffff8211156127eb576127ea612755565b5b6127f482612595565b9050602081019050919050565b82818337600083830152505050565b600061282361281e846127d0565b6127b5565b90508281526020810184848401111561283f5761283e612750565b5b61284a848285612801565b509392505050565b600082601f8301126128675761286661274b565b5b8135612877848260208601612810565b91505092915050565b60008060408385031215612897576128966124b1565b5b600083013567ffffffffffffffff8111156128b5576128b46124b6565b5b6128c185828601612852565b925050602083013567ffffffffffffffff8111156128e2576128e16124b6565b5b6128ee85828601612852565b9150509250929050565b600081519050919050565b600082825260208201905092915050565b6000819050602082019050919050565b61292d816124db565b82525050565b600061293f8383612924565b60208301905092915050565b6000602082019050919050565b6000612963826128f8565b61296d8185612903565b935061297883612914565b8060005b838110156129a95781516129908882612933565b975061299b8361294b565b92505060018101905061297c565b5085935050505092915050565b600060208201905081810360008301526129d08184612958565b905092915050565b6129e181612473565b81146129ec57600080fd5b50565b6000813590506129fe816129d8565b92915050565b600060208284031215612a1a57612a196124b1565b5b6000612a28848285016129ef565b91505092915050565b600060c082019050612a46600083018961247d565b612a5360208301886125df565b8181036040830152612a6581876125a6565b90508181036060830152612a7981866125a6565b9050612a88608083018561247d565b612a9560a083018461247d565b979650505050505050565b60006040820190508181036000830152612aba8185612958565b9050612ac9602083018461247d565b9392505050565b6000602082019050612ae560008301846125df565b92915050565b60008060408385031215612b0257612b016124b1565b5b6000612b1085828601612504565b9250506020612b21858286016129ef565b9150509250929050565b600060c082019050612b4060008301896125df565b612b4d602083018861247d565b612b5a604083018761247d565b612b67606083018661247d565b612b74608083018561247d565b612b8160a083018461247d565b979650505050505050565b7f4e487b7100000000000000000000000000000000000000000000000000000000600052602260045260246000fd5b60006002820490506001821680612bd357607f821691505b60208210811415612be757612be6612b8c565b5b50919050565b7f4f6e6c792041646d696e2063616e2063616c6c20746869730000000000000000600082015250565b6000612c23601883612551565b9150612c2e82612bed565b602082019050919050565b60006020820190508181036000830152612c5281612c16565b9050919050565b7f54686973206164647265737320776173207265676973746572656420616c726560008201527f6164790000000000000000000000000000000000000000000000000000000000602082015250565b6000612cb5602383612551565b9150612cc082612c59565b604082019050919050565b60006020820190508181036000830152612ce481612ca8565b9050919050565b7f4e487b7100000000000000000000000000000000000000000000000000000000600052603260045260246000fd5b7f4e487b7100000000000000000000000000000000000000000000000000000000600052601160045260246000fd5b6000612d5482612473565b91507fffffffffffffffffffffffffffffffffffffffffffffffffffffffffffffffff821415612d8757612d86612d1a565b5b600182019050919050565b60008190508160005260206000209050919050565b60008154612db481612bbb565b612dbe8186612551565b94506001821660008114612dd95760018114612deb57612e1e565b60ff1983168652602086019350612e1e565b612df485612d92565b60005b83811015612e1657815481890152600182019150602081019050612df7565b808801955050505b50505092915050565b60006040820190508181036000830152612e418185612da7565b90508181036020830152612e558184612da7565b90509392505050565b7f496e76616c696420537461746500000000000000000000000000000000000000600082015250565b6000612e94600d83612551565b9150612e9f82612e5e565b602082019050919050565b60006020820190508181036000830152612ec381612e87565b9050919050565b6000612ed582612473565b9150612ee083612473565b925082821015612ef357612ef2612d1a565b5b828203905092915050565b6000612f0982612473565b9150612f1483612473565b9250817fffffffffffffffffffffffffffffffffffffffffffffffffffffffffffffffff0483118215151615612f4d57612f4c612d1a565b5b828202905092915050565b7f4e487b7100000000000000000000000000000000000000000000000000000000600052601260045260246000fd5b6000612f9282612473565b9150612f9d83612473565b925082612fad57612fac612f58565b5b828204905092915050565b6000612fc382612473565b9150612fce83612473565b9250827fffffffffffffffffffffffffffffffffffffffffffffffffffffffffffffffff0382111561300357613002612d1a565b5b828201905092915050565b7f5061727469636970616e742068617665206e6f74207265676973746572656400600082015250565b6000613044601f83612551565b915061304f8261300e565b602082019050919050565b6000602082019050818103600083015261307381613037565b9050919050565b600081905092915050565b6000815461309281612bbb565b61309c818661307a565b945060018216600081146130b757600181146130c8576130fb565b60ff198316865281860193506130fb565b6130d185612d92565b60005b838110156130f3578154818901526001820191506020810190506130d4565b838801955050505b50505092915050565b60006131108284613085565b915081905092915050565b600061312682612546565b613130818561307a565b9350613140818560208601612562565b80840191505092915050565b6000613158828461311b565b91508190509291505056fea2646970667358221220eea35322e9d9267f061015b74714500abd1d4937ffad3d7f512ef109462b738164736f6c634300080a0033",
  "immutableReferences": {},
  "source": "pragma solidity ^0.8.0;\r\n// SPDX-License-Identifier: GPL-3.0\r\ncontract Main {\r\n\r\n    // Structure to hold details of Bidder\r\n    struct IParticipant {\r\n        uint participantID;\r\n        string name;\r\n        string email;\r\n        uint deviation ;\r\n        uint deviationNew;\r\n        uint sessionNumber;\r\n        address addr;\r\n    }\r\n\r\n    address public admin;\r\n    mapping( address=>IParticipant) public participants;\r\n    IParticipant [10] public Iparticipants;\r\n       \r\n    struct Session{\r\n        address addr;\r\n        uint totalPrice;\r\n        uint totalPercent;\r\n        uint proposedPrice ;\r\n        uint lastPrice;\r\n        address [] participantsOfSes;\r\n        mapping(uint =>uint) priceOfAPar; // map from ID of participant to their latest price\r\n        mapping(address => uint []) parPrices;\r\n        uint [] givenPrices;\r\n        uint status; //  State{ CREATED, STARTED, STOPPED, CLOSED }\r\n    }\r\n    mapping (address=>Session) public detailSession;\r\n    address [] public sessions; \r\n    uint public count = 0;\r\n    \r\n    event Register(string name, string email);\r\n    event UpdateInfo(string name, string email);\r\n    event ProposedPrice(uint proposedPrice);\r\n    event CloseSession( uint lastPrice);\r\n\r\n    constructor(){\r\n        admin = msg.sender;\r\n\r\n    }\r\n        modifier onlyAdmin(){\r\n        require(msg.sender == admin,'Only Admin can call this');\r\n        _;\r\n    }\r\n\r\n    // Add a Session Contract address into Main Contract. Use to link Session with Main\r\n    function addSession(address _session) public {\r\n        sessions.push(_session);\r\n        // TODO\r\n    }\r\n    function getSessions() public view returns(address [] memory, uint){\r\n        return (sessions,sessions.length);\r\n    }\r\n    function getSessionNum() public view returns(uint){\r\n        return sessions.length;\r\n    }\r\n\r\n    function getAdminInfo() public view returns(address){\r\n        return admin;\r\n    }\r\n\r\n    // TODO: Functions\r\n    function register( string memory _name, string memory _email) public {  \r\n        require(participants[msg.sender].addr == address(0),\"This address was registered already\");\r\n        IParticipant storage sender = participants[msg.sender];\r\n        sender.name = _name;\r\n        sender.email = _email;\r\n        sender.deviation = 0;\r\n        sender.sessionNumber = 0;\r\n        sender.addr = msg.sender;\r\n        sender.participantID = count; \r\n        \r\n       \r\n        Iparticipants[participants[msg.sender].participantID].name = _name;//map info to Iparticipants\r\n        Iparticipants[participants[msg.sender].participantID].email = _email;\r\n        Iparticipants[participants[msg.sender].participantID].participantID = count;\r\n        Iparticipants[participants[msg.sender].participantID].addr = msg.sender;\r\n        count ++;\r\n        emit Register(sender.name,sender.email);\r\n    }\r\n    function update(string memory _newName, string memory _newEmail) public {\r\n        if(keccak256(abi.encodePacked(_newName)) != keccak256(abi.encodePacked(participants[msg.sender].name))){\r\n            participants[msg.sender].name = _newName;\r\n            Iparticipants[participants[msg.sender].participantID].name = _newName;\r\n        }\r\n        if(keccak256(abi.encodePacked(_newEmail)) != keccak256(abi.encodePacked(participants[msg.sender].email))){\r\n            participants[msg.sender].email = _newEmail;\r\n            Iparticipants[participants[msg.sender].participantID].email = _newEmail;\r\n        }\r\n        emit UpdateInfo(participants[msg.sender].name,participants[msg.sender].email);\r\n    }\r\n    function statusSession(address _session,uint _status) public {\r\n        detailSession[_session].status = _status ;\r\n    }\r\n    \r\n    function price(address _session, uint _price) public{\r\n        require(participants[msg.sender].addr != address(0),'Participant have not registered');\r\n        require(detailSession[_session].status==1,'Invalid State');\r\n        detailSession[_session].addr = _session;\r\n        IParticipant storage currentPar = participants[msg.sender];\r\n        Session storage currentSes = detailSession[_session];\r\n        if(currentSes.priceOfAPar[currentPar.participantID]<_price){\r\n        uint _numberMove = _price - currentSes.priceOfAPar[currentPar.participantID]; \r\n        currentSes.totalPrice += _numberMove *(100 - currentPar.deviation);\r\n        }else{\r\n        uint _numberMove = currentSes.priceOfAPar[currentPar.participantID] - _price;\r\n            currentSes.totalPrice -= _numberMove *(100 - currentPar.deviation);\r\n        }\r\n        detailSession[_session].parPrices[msg.sender].push(_price);\r\n         \r\n        uint parPercent = 100 - currentPar.deviation ;\r\n        if(currentSes.parPrices[msg.sender].length==1){\r\n            currentSes.totalPercent += parPercent;\r\n            currentPar.sessionNumber++;\r\n            Iparticipants[currentPar.participantID].sessionNumber = currentPar.sessionNumber;//map to Iparticipants\r\n            currentSes.participantsOfSes.push(msg.sender);\r\n        }\r\n        currentSes.proposedPrice = currentSes.totalPrice/currentSes.totalPercent;\r\n        currentSes.priceOfAPar[currentPar.participantID] = _price;\r\n        //count all given prices\r\n        emit ProposedPrice(currentSes.proposedPrice);\r\n    }\r\n    function getProposedPrice(address _session)public view returns(uint){\r\n        return (detailSession[_session].proposedPrice);\r\n    }\r\n    function calculateLastPrice(address _session)public {\r\n        require(detailSession[_session].status==2,'Invalid State');\r\n        Session storage currentSes = detailSession[_session];\r\n        currentSes.lastPrice = currentSes.proposedPrice;\r\n        uint lastP = currentSes.lastPrice ;\r\n        for (uint i=0; i<count;i++){\r\n            if((lastP>=currentSes.priceOfAPar[i])){\r\n                Iparticipants[i].deviationNew =(lastP - currentSes.priceOfAPar[i])* 100/lastP  ;\r\n            }else{\r\n                Iparticipants[i].deviationNew =(currentSes.priceOfAPar[i]- lastP)* 100 /lastP ;\r\n            }\r\n            participants[Iparticipants[i].addr].deviationNew = Iparticipants[i].deviationNew; //map to participants\r\n        }\r\n        for(uint i; i<count;i++){\r\n            Iparticipants[i].deviation =( Iparticipants[i].deviation * (Iparticipants[i].sessionNumber-1) + Iparticipants[i].deviationNew)/(Iparticipants[i].sessionNumber);\r\n            participants[Iparticipants[i].addr].deviation = Iparticipants[i].deviation;//map to participants\r\n        }\r\n        for(uint i=0;i<=currentSes.participantsOfSes.length;i++){\r\n            currentSes.givenPrices.push(currentSes.priceOfAPar[i]);\r\n        }\r\n        emit CloseSession(currentSes.lastPrice);\r\n        \r\n        \r\n    }\r\n    function getLastPrice(address _session) public view returns(uint){\r\n        require(detailSession[_session].status==3,'Invalid State');\r\n        return (detailSession[_session].lastPrice);\r\n    }\r\n    function getListOfPar(address _session) public view returns(address [] memory){\r\n        // require(detailSession[_session].status==1,'Invalid State');\r\n        return(detailSession[_session].participantsOfSes);\r\n    }\r\n    function getGivenPrices(address _session) public view returns(uint [] memory){\r\n        // require(detailSession[_session].status==3,'Invalid State');\r\n        return(detailSession[_session].givenPrices);\r\n    }\r\n    function getProfileId(uint _id) view public returns(uint ,address,string memory,string memory,uint,uint){\r\n        // require(msg.sender== admin || msg.sender == Iparticipants[_id].addr,\"Only admin or the owner of account call this\");\r\n        return(Iparticipants[_id].participantID,Iparticipants[_id].addr,Iparticipants[_id].name,Iparticipants[_id].email,Iparticipants[_id].deviation,Iparticipants[_id].sessionNumber);\r\n    }\r\n    function getProfileAdd(address _addr) view public returns(uint ,address,string memory,string memory,uint,uint){\r\n    // require(msg.sender== admin || msg.sender == Iparticipants[_id].addr,\"Only admin or the owner of account call this\");\r\n        return(participants[_addr].participantID,participants[_addr].addr,participants[_addr].name,participants[_addr].email,participants[_addr].deviation,participants[_addr].sessionNumber);\r\n    }\r\n\r\n    function getTotalParNum() public view returns(uint){\r\n        return count;\r\n    }\r\n\r\n    function getStatusSession(address _session) public view onlyAdmin returns(uint){\r\n        return detailSession[_session].status;\r\n    }\r\n    \r\n}\r\n",
  "sourcePath": "C:\\Users\\Admin\\Desktop\\do_an_funix\\bai 26.02.2022\\bai moi\\contract\\contracts\\Main.sol",
  "compiler": {
    "name": "solc",
    "version": "0.8.10+commit.fc410830.Emscripten.clang"
  },
  "schemaVersion": "3.4.3",
  "updatedAt": "2022-03-06T15:06:12.976Z",
  "networkType": "ethereum",
  "devdoc": {
    "kind": "dev",
    "methods": {},
    "version": 1
  },
  "userdoc": {
    "kind": "user",
    "methods": {},
    "version": 1
  }
}