{
  "contractName": "Session",
  "abi": [
    {
      "inputs": [
        {
          "internalType": "address",
          "name": "_mainContract",
          "type": "address"
        },
        {
          "internalType": "address",
          "name": "_admin",
          "type": "address"
        },
        {
          "internalType": "string",
          "name": "_itemName",
          "type": "string"
        },
        {
          "internalType": "string",
          "name": "_description",
          "type": "string"
        }
      ],
      "stateMutability": "nonpayable",
      "type": "constructor"
    },
    {
      "inputs": [],
      "name": "admin",
      "outputs": [
        {
          "internalType": "address",
          "name": "",
          "type": "address"
        }
      ],
      "stateMutability": "view",
      "type": "function"
    },
    {
      "inputs": [
        {
          "internalType": "uint256",
          "name": "",
          "type": "uint256"
        }
      ],
      "name": "givenPrices",
      "outputs": [
        {
          "internalType": "uint256",
          "name": "",
          "type": "uint256"
        }
      ],
      "stateMutability": "view",
      "type": "function"
    },
    {
      "inputs": [],
      "name": "imageHash",
      "outputs": [
        {
          "internalType": "string",
          "name": "",
          "type": "string"
        }
      ],
      "stateMutability": "view",
      "type": "function"
    },
    {
      "inputs": [
        {
          "internalType": "uint256",
          "name": "",
          "type": "uint256"
        }
      ],
      "name": "imageHashes",
      "outputs": [
        {
          "internalType": "string",
          "name": "",
          "type": "string"
        }
      ],
      "stateMutability": "view",
      "type": "function"
    },
    {
      "inputs": [],
      "name": "item",
      "outputs": [
        {
          "internalType": "uint256",
          "name": "itemID",
          "type": "uint256"
        },
        {
          "internalType": "string",
          "name": "itemName",
          "type": "string"
        },
        {
          "internalType": "string",
          "name": "description",
          "type": "string"
        }
      ],
      "stateMutability": "view",
      "type": "function"
    },
    {
      "inputs": [],
      "name": "lastPrice",
      "outputs": [
        {
          "internalType": "uint256",
          "name": "",
          "type": "uint256"
        }
      ],
      "stateMutability": "view",
      "type": "function"
    },
    {
      "inputs": [],
      "name": "mainContract",
      "outputs": [
        {
          "internalType": "address",
          "name": "",
          "type": "address"
        }
      ],
      "stateMutability": "view",
      "type": "function"
    },
    {
      "inputs": [
        {
          "internalType": "uint256",
          "name": "",
          "type": "uint256"
        }
      ],
      "name": "participants",
      "outputs": [
        {
          "internalType": "address",
          "name": "",
          "type": "address"
        }
      ],
      "stateMutability": "view",
      "type": "function"
    },
    {
      "inputs": [],
      "name": "proposedPrice",
      "outputs": [
        {
          "internalType": "uint256",
          "name": "",
          "type": "uint256"
        }
      ],
      "stateMutability": "view",
      "type": "function"
    },
    {
      "inputs": [],
      "name": "state",
      "outputs": [
        {
          "internalType": "enum Session.State",
          "name": "",
          "type": "uint8"
        }
      ],
      "stateMutability": "view",
      "type": "function"
    },
    {
      "inputs": [],
      "name": "setIdSession",
      "outputs": [],
      "stateMutability": "nonpayable",
      "type": "function"
    },
    {
      "inputs": [],
      "name": "getProductInfo",
      "outputs": [
        {
          "internalType": "uint256",
          "name": "",
          "type": "uint256"
        },
        {
          "internalType": "string",
          "name": "",
          "type": "string"
        },
        {
          "internalType": "string",
          "name": "",
          "type": "string"
        }
      ],
      "stateMutability": "view",
      "type": "function"
    },
    {
      "inputs": [
        {
          "internalType": "string",
          "name": "_imageHash",
          "type": "string"
        }
      ],
      "name": "setHash",
      "outputs": [],
      "stateMutability": "nonpayable",
      "type": "function"
    },
    {
      "inputs": [],
      "name": "getImages",
      "outputs": [
        {
          "internalType": "string[]",
          "name": "",
          "type": "string[]"
        }
      ],
      "stateMutability": "view",
      "type": "function"
    },
    {
      "inputs": [],
      "name": "startSession",
      "outputs": [],
      "stateMutability": "nonpayable",
      "type": "function"
    },
    {
      "inputs": [
        {
          "internalType": "uint256",
          "name": "_newItemId",
          "type": "uint256"
        },
        {
          "internalType": "string",
          "name": "_newName",
          "type": "string"
        },
        {
          "internalType": "string",
          "name": "_newDescription",
          "type": "string"
        }
      ],
      "name": "updateProductInfo",
      "outputs": [],
      "stateMutability": "nonpayable",
      "type": "function"
    },
    {
      "inputs": [],
      "name": "getProposedPrice",
      "outputs": [
        {
          "internalType": "uint256",
          "name": "",
          "type": "uint256"
        }
      ],
      "stateMutability": "nonpayable",
      "type": "function"
    },
    {
      "inputs": [],
      "name": "stopSession",
      "outputs": [],
      "stateMutability": "nonpayable",
      "type": "function"
    },
    {
      "inputs": [],
      "name": "getPriceAndClose",
      "outputs": [
        {
          "internalType": "uint256",
          "name": "",
          "type": "uint256"
        }
      ],
      "stateMutability": "nonpayable",
      "type": "function"
    },
    {
      "inputs": [],
      "name": "getListOfPar",
      "outputs": [
        {
          "internalType": "address[]",
          "name": "",
          "type": "address[]"
        }
      ],
      "stateMutability": "nonpayable",
      "type": "function"
    },
    {
      "inputs": [],
      "name": "getGivenPrices",
      "outputs": [],
      "stateMutability": "nonpayable",
      "type": "function"
    },
    {
      "inputs": [],
      "name": "getStatusSession",
      "outputs": [
        {
          "internalType": "enum Session.State",
          "name": "",
          "type": "uint8"
        }
      ],
      "stateMutability": "view",
      "type": "function"
    }
  ],
  "bytecode": "0x60806040526000600860006101000a81548160ff021916908360038111156200002d576200002c62000347565b5b02179055503480156200003f57600080fd5b5060405162002d9738038062002d97833981810160405281019062000065919062000578565b836000806101000a81548173ffffffffffffffffffffffffffffffffffffffff021916908373ffffffffffffffffffffffffffffffffffffffff16021790555083600160006101000a81548173ffffffffffffffffffffffffffffffffffffffff021916908373ffffffffffffffffffffffffffffffffffffffff160217905550600160009054906101000a900473ffffffffffffffffffffffffffffffffffffffff1673ffffffffffffffffffffffffffffffffffffffff16634e2ce5b46040518163ffffffff1660e01b8152600401602060405180830381865afa15801562000154573d6000803e3d6000fd5b505050506040513d601f19601f820116820180604052508101906200017a919062000663565b60036000018190555081600360010190805190602001906200019e92919062000297565b508060036002019080519060200190620001ba92919062000297565b5082600260006101000a81548173ffffffffffffffffffffffffffffffffffffffff021916908373ffffffffffffffffffffffffffffffffffffffff160217905550600160009054906101000a900473ffffffffffffffffffffffffffffffffffffffff1673ffffffffffffffffffffffffffffffffffffffff1663f390dd86306040518263ffffffff1660e01b8152600401620002599190620006a6565b600060405180830381600087803b1580156200027457600080fd5b505af115801562000289573d6000803e3d6000fd5b505050505050505062000728565b828054620002a590620006f2565b90600052602060002090601f016020900481019282620002c9576000855562000315565b82601f10620002e457805160ff191683800117855562000315565b8280016001018555821562000315579182015b8281111562000314578251825591602001919060010190620002f7565b5b50905062000324919062000328565b5090565b5b808211156200034357600081600090555060010162000329565b5090565b7f4e487b7100000000000000000000000000000000000000000000000000000000600052602160045260246000fd5b6000604051905090565b600080fd5b600080fd5b600073ffffffffffffffffffffffffffffffffffffffff82169050919050565b6000620003b7826200038a565b9050919050565b620003c981620003aa565b8114620003d557600080fd5b50565b600081519050620003e981620003be565b92915050565b600080fd5b600080fd5b6000601f19601f8301169050919050565b7f4e487b7100000000000000000000000000000000000000000000000000000000600052604160045260246000fd5b6200044482620003f9565b810181811067ffffffffffffffff821117156200046657620004656200040a565b5b80604052505050565b60006200047b62000376565b905062000489828262000439565b919050565b600067ffffffffffffffff821115620004ac57620004ab6200040a565b5b620004b782620003f9565b9050602081019050919050565b60005b83811015620004e4578082015181840152602081019050620004c7565b83811115620004f4576000848401525b50505050565b6000620005116200050b846200048e565b6200046f565b90508281526020810184848401111562000530576200052f620003f4565b5b6200053d848285620004c4565b509392505050565b600082601f8301126200055d576200055c620003ef565b5b81516200056f848260208601620004fa565b91505092915050565b6000806000806080858703121562000595576200059462000380565b5b6000620005a587828801620003d8565b9450506020620005b887828801620003d8565b935050604085015167ffffffffffffffff811115620005dc57620005db62000385565b5b620005ea8782880162000545565b925050606085015167ffffffffffffffff8111156200060e576200060d62000385565b5b6200061c8782880162000545565b91505092959194509250565b6000819050919050565b6200063d8162000628565b81146200064957600080fd5b50565b6000815190506200065d8162000632565b92915050565b6000602082840312156200067c576200067b62000380565b5b60006200068c848285016200064c565b91505092915050565b620006a081620003aa565b82525050565b6000602082019050620006bd600083018462000695565b92915050565b7f4e487b7100000000000000000000000000000000000000000000000000000000600052602260045260246000fd5b600060028204905060018216806200070b57607f821691505b60208210811415620007225762000721620006c3565b5b50919050565b61265f80620007386000396000f3fe608060405234801561001057600080fd5b50600436106101425760003560e01c8063a797712e116100b8578063d35d10b31161007c578063d35d10b31461031f578063e3635bfd1461033b578063f2a4a82e14610359578063f851a44014610379578063fc72a38514610397578063fe0ae165146103b757610142565b8063a797712e14610279578063a8d4ab6c146102a9578063c19d93fb146102d9578063cbd8c613146102f7578063d270e7ab1461030157610142565b8063316c22611161010a578063316c2261146101db57806335c1d349146101e55780633638d677146102155780633ac7047114610233578063474322c01461023d57806351605d801461025b57610142565b8063031a655814610147578063053f14da1461016557806311498334146101835780631bc1023e146101a15780631ed83fd4146101bf575b600080fd5b61014f6103c1565b60405161015c9190611968565b60405180910390f35b61016d610577565b60405161017a9190611968565b60405180910390f35b61018b61057d565b6040516101989190611ade565b60405180910390f35b6101a9610656565b6040516101b69190611bf0565b60405180910390f35b6101d960048036038101906101d49190611d5b565b61082d565b005b6101e3610913565b005b6101ff60048036038101906101fa9190611dd0565b6109af565b60405161020c9190611e0c565b60405180910390f35b61021d6109ee565b60405161022a9190611968565b60405180910390f35b61023b610c5f565b005b610245610daa565b6040516102529190611e9e565b60405180910390f35b610263610dc1565b6040516102709190611f03565b60405180910390f35b610293600480360381019061028e9190611dd0565b610e4f565b6040516102a09190611968565b60405180910390f35b6102c360048036038101906102be9190611dd0565b610e73565b6040516102d09190611f03565b60405180910390f35b6102e1610f1f565b6040516102ee9190611e9e565b60405180910390f35b6102ff610f32565b005b610309611184565b6040516103169190611e0c565b60405180910390f35b61033960048036038101906103349190611f25565b6111a8565b005b610343611384565b6040516103509190611968565b60405180910390f35b61036161138a565b60405161037093929190611fb0565b60405180910390f35b6103816114b2565b60405161038e9190611e0c565b60405180910390f35b61039f6114d8565b6040516103ae93929190611fb0565b60405180910390f35b6103bf611610565b005b600060018060038111156103d8576103d7611e27565b5b600860009054906101000a900460ff1660038111156103fa576103f9611e27565b5b1461043a576040517f08c379a000000000000000000000000000000000000000000000000000000000815260040161043190612041565b60405180910390fd5b600260009054906101000a900473ffffffffffffffffffffffffffffffffffffffff1673ffffffffffffffffffffffffffffffffffffffff163373ffffffffffffffffffffffffffffffffffffffff16146104ca576040517f08c379a00000000000000000000000000000000000000000000000000000000081526004016104c1906120ad565b60405180910390fd5b600160009054906101000a900473ffffffffffffffffffffffffffffffffffffffff1673ffffffffffffffffffffffffffffffffffffffff166345504805306040518263ffffffff1660e01b81526004016105259190611e0c565b6020604051808303816000875af1158015610544573d6000803e3d6000fd5b505050506040513d601f19601f8201168201806040525081019061056891906120e2565b60068190555060065491505090565b60075481565b6060600b805480602002602001604051908101604052809291908181526020016000905b8282101561064d5783829060005260206000200180546105c09061213e565b80601f01602080910402602001604051908101604052809291908181526020018280546105ec9061213e565b80156106395780601f1061060e57610100808354040283529160200191610639565b820191906000526020600020905b81548152906001019060200180831161061c57829003601f168201915b5050505050815260200190600101906105a1565b50505050905090565b6060600260009054906101000a900473ffffffffffffffffffffffffffffffffffffffff1673ffffffffffffffffffffffffffffffffffffffff163373ffffffffffffffffffffffffffffffffffffffff16146106e8576040517f08c379a00000000000000000000000000000000000000000000000000000000081526004016106df906120ad565b60405180910390fd5b600160009054906101000a900473ffffffffffffffffffffffffffffffffffffffff1673ffffffffffffffffffffffffffffffffffffffff16634188b458306040518263ffffffff1660e01b81526004016107439190611e0c565b6000604051808303816000875af1158015610762573d6000803e3d6000fd5b505050506040513d6000823e3d601f19601f8201168201806040525081019061078b9190612264565b600990805190602001906107a09291906117d5565b50600980548060200260200160405190810160405280929190818152602001828054801561082357602002820191906000526020600020905b8160009054906101000a900473ffffffffffffffffffffffffffffffffffffffff1673ffffffffffffffffffffffffffffffffffffffff16815260200190600101908083116107d9575b5050505050905090565b600260009054906101000a900473ffffffffffffffffffffffffffffffffffffffff1673ffffffffffffffffffffffffffffffffffffffff163373ffffffffffffffffffffffffffffffffffffffff16146108bd576040517f08c379a00000000000000000000000000000000000000000000000000000000081526004016108b4906120ad565b60405180910390fd5b80600c90805190602001906108d392919061185f565b50600b8190806001815401808255809150506001900390600052602060002001600090919091909150908051906020019061090f92919061185f565b5050565b600160009054906101000a900473ffffffffffffffffffffffffffffffffffffffff1673ffffffffffffffffffffffffffffffffffffffff16634e2ce5b46040518163ffffffff1660e01b8152600401602060405180830381865afa158015610980573d6000803e3d6000fd5b505050506040513d601f19601f820116820180604052508101906109a491906120e2565b600360000181905550565b600981815481106109bf57600080fd5b906000526020600020016000915054906101000a900473ffffffffffffffffffffffffffffffffffffffff1681565b60006002806003811115610a0557610a04611e27565b5b600860009054906101000a900460ff166003811115610a2757610a26611e27565b5b14610a67576040517f08c379a0000000000000000000000000000000000000000000000000000000008152600401610a5e90612041565b60405180910390fd5b600260009054906101000a900473ffffffffffffffffffffffffffffffffffffffff1673ffffffffffffffffffffffffffffffffffffffff163373ffffffffffffffffffffffffffffffffffffffff1614610af7576040517f08c379a0000000000000000000000000000000000000000000000000000000008152600401610aee906120ad565b60405180910390fd5b600160009054906101000a900473ffffffffffffffffffffffffffffffffffffffff1673ffffffffffffffffffffffffffffffffffffffff1663deeb3e703060036040518363ffffffff1660e01b8152600401610b559291906122f2565b600060405180830381600087803b158015610b6f57600080fd5b505af1158015610b83573d6000803e3d6000fd5b505050506003600860006101000a81548160ff02191690836003811115610bad57610bac611e27565b5b0217905550600160009054906101000a900473ffffffffffffffffffffffffffffffffffffffff1673ffffffffffffffffffffffffffffffffffffffff1663c692fc74306040518263ffffffff1660e01b8152600401610c0d9190611e0c565b6020604051808303816000875af1158015610c2c573d6000803e3d6000fd5b505050506040513d601f19601f82011682018060405250810190610c5091906120e2565b60078190555060075491505090565b600260009054906101000a900473ffffffffffffffffffffffffffffffffffffffff1673ffffffffffffffffffffffffffffffffffffffff163373ffffffffffffffffffffffffffffffffffffffff1614610cef576040517f08c379a0000000000000000000000000000000000000000000000000000000008152600401610ce6906120ad565b60405180910390fd5b600160009054906101000a900473ffffffffffffffffffffffffffffffffffffffff1673ffffffffffffffffffffffffffffffffffffffff166327eaba5a306040518263ffffffff1660e01b8152600401610d4a9190611e0c565b6000604051808303816000875af1158015610d69573d6000803e3d6000fd5b505050506040513d6000823e3d601f19601f82011682018060405250810190610d9291906123de565b600a9080519060200190610da79291906118e5565b50565b6000600860009054906101000a900460ff16905090565b600c8054610dce9061213e565b80601f0160208091040260200160405190810160405280929190818152602001828054610dfa9061213e565b8015610e475780601f10610e1c57610100808354040283529160200191610e47565b820191906000526020600020905b815481529060010190602001808311610e2a57829003601f168201915b505050505081565b600a8181548110610e5f57600080fd5b906000526020600020016000915090505481565b600b8181548110610e8357600080fd5b906000526020600020016000915090508054610e9e9061213e565b80601f0160208091040260200160405190810160405280929190818152602001828054610eca9061213e565b8015610f175780601f10610eec57610100808354040283529160200191610f17565b820191906000526020600020905b815481529060010190602001808311610efa57829003601f168201915b505050505081565b600860009054906101000a900460ff1681565b600260009054906101000a900473ffffffffffffffffffffffffffffffffffffffff1673ffffffffffffffffffffffffffffffffffffffff163373ffffffffffffffffffffffffffffffffffffffff1614610fc2576040517f08c379a0000000000000000000000000000000000000000000000000000000008152600401610fb9906120ad565b60405180910390fd5b6001806003811115610fd757610fd6611e27565b5b600860009054906101000a900460ff166003811115610ff957610ff8611e27565b5b14611039576040517f08c379a000000000000000000000000000000000000000000000000000000000815260040161103090612041565b60405180910390fd5b600160009054906101000a900473ffffffffffffffffffffffffffffffffffffffff1673ffffffffffffffffffffffffffffffffffffffff1663deeb3e703060026040518363ffffffff1660e01b8152600401611097929190612462565b600060405180830381600087803b1580156110b157600080fd5b505af11580156110c5573d6000803e3d6000fd5b505050506002600860006101000a81548160ff021916908360038111156110ef576110ee611e27565b5b0217905550600160009054906101000a900473ffffffffffffffffffffffffffffffffffffffff1673ffffffffffffffffffffffffffffffffffffffff16636bc03cf0306040518263ffffffff1660e01b815260040161114f9190611e0c565b600060405180830381600087803b15801561116957600080fd5b505af115801561117d573d6000803e3d6000fd5b5050505050565b60008054906101000a900473ffffffffffffffffffffffffffffffffffffffff1681565b600260009054906101000a900473ffffffffffffffffffffffffffffffffffffffff1673ffffffffffffffffffffffffffffffffffffffff163373ffffffffffffffffffffffffffffffffffffffff1614611238576040517f08c379a000000000000000000000000000000000000000000000000000000000815260040161122f906120ad565b60405180910390fd5b60036000015460405160200161124e91906124ac565b604051602081830303815290604052805190602001208360405160200161127591906124ac565b604051602081830303815290604052805190602001201461129b57826003600001819055505b60036001016040516020016112b09190612566565b60405160208183030381529060405280519060200120826040516020016112d791906125ae565b604051602081830303815290604052805190602001201461130d57816003600101908051906020019061130b92919061185f565b505b60036002016040516020016113229190612566565b604051602081830303815290604052805190602001208160405160200161134991906125ae565b604051602081830303815290604052805190602001201461137f57806003600201908051906020019061137d92919061185f565b505b505050565b60065481565b60038060000154908060010180546113a19061213e565b80601f01602080910402602001604051908101604052809291908181526020018280546113cd9061213e565b801561141a5780601f106113ef5761010080835404028352916020019161141a565b820191906000526020600020905b8154815290600101906020018083116113fd57829003601f168201915b50505050509080600201805461142f9061213e565b80601f016020809104026020016040519081016040528092919081815260200182805461145b9061213e565b80156114a85780601f1061147d576101008083540402835291602001916114a8565b820191906000526020600020905b81548152906001019060200180831161148b57829003601f168201915b5050505050905083565b600260009054906101000a900473ffffffffffffffffffffffffffffffffffffffff1681565b6000606080600360000154600360010160036002018180546114f99061213e565b80601f01602080910402602001604051908101604052809291908181526020018280546115259061213e565b80156115725780601f1061154757610100808354040283529160200191611572565b820191906000526020600020905b81548152906001019060200180831161155557829003601f168201915b505050505091508080546115859061213e565b80601f01602080910402602001604051908101604052809291908181526020018280546115b19061213e565b80156115fe5780601f106115d3576101008083540402835291602001916115fe565b820191906000526020600020905b8154815290600101906020018083116115e157829003601f168201915b50505050509050925092509250909192565b600080600381111561162557611624611e27565b5b600860009054906101000a900460ff16600381111561164757611646611e27565b5b14611687576040517f08c379a000000000000000000000000000000000000000000000000000000000815260040161167e90612041565b60405180910390fd5b600260009054906101000a900473ffffffffffffffffffffffffffffffffffffffff1673ffffffffffffffffffffffffffffffffffffffff163373ffffffffffffffffffffffffffffffffffffffff1614611717576040517f08c379a000000000000000000000000000000000000000000000000000000000815260040161170e906120ad565b60405180910390fd5b6001600860006101000a81548160ff0219169083600381111561173d5761173c611e27565b5b0217905550600160009054906101000a900473ffffffffffffffffffffffffffffffffffffffff1673ffffffffffffffffffffffffffffffffffffffff1663deeb3e703060016040518363ffffffff1660e01b81526004016117a0929190612600565b600060405180830381600087803b1580156117ba57600080fd5b505af11580156117ce573d6000803e3d6000fd5b5050505050565b82805482825590600052602060002090810192821561184e579160200282015b8281111561184d5782518260006101000a81548173ffffffffffffffffffffffffffffffffffffffff021916908373ffffffffffffffffffffffffffffffffffffffff160217905550916020019190600101906117f5565b5b50905061185b9190611932565b5090565b82805461186b9061213e565b90600052602060002090601f01602090048101928261188d57600085556118d4565b82601f106118a657805160ff19168380011785556118d4565b828001600101855582156118d4579182015b828111156118d35782518255916020019190600101906118b8565b5b5090506118e19190611932565b5090565b828054828255906000526020600020908101928215611921579160200282015b82811115611920578251825591602001919060010190611905565b5b50905061192e9190611932565b5090565b5b8082111561194b576000816000905550600101611933565b5090565b6000819050919050565b6119628161194f565b82525050565b600060208201905061197d6000830184611959565b92915050565b600081519050919050565b600082825260208201905092915050565b6000819050602082019050919050565b600081519050919050565b600082825260208201905092915050565b60005b838110156119e95780820151818401526020810190506119ce565b838111156119f8576000848401525b50505050565b6000601f19601f8301169050919050565b6000611a1a826119af565b611a2481856119ba565b9350611a348185602086016119cb565b611a3d816119fe565b840191505092915050565b6000611a548383611a0f565b905092915050565b6000602082019050919050565b6000611a7482611983565b611a7e818561198e565b935083602082028501611a908561199f565b8060005b85811015611acc5784840389528151611aad8582611a48565b9450611ab883611a5c565b925060208a01995050600181019050611a94565b50829750879550505050505092915050565b60006020820190508181036000830152611af88184611a69565b905092915050565b600081519050919050565b600082825260208201905092915050565b6000819050602082019050919050565b600073ffffffffffffffffffffffffffffffffffffffff82169050919050565b6000611b5782611b2c565b9050919050565b611b6781611b4c565b82525050565b6000611b798383611b5e565b60208301905092915050565b6000602082019050919050565b6000611b9d82611b00565b611ba78185611b0b565b9350611bb283611b1c565b8060005b83811015611be3578151611bca8882611b6d565b9750611bd583611b85565b925050600181019050611bb6565b5085935050505092915050565b60006020820190508181036000830152611c0a8184611b92565b905092915050565b6000604051905090565b600080fd5b600080fd5b600080fd5b600080fd5b7f4e487b7100000000000000000000000000000000000000000000000000000000600052604160045260246000fd5b611c68826119fe565b810181811067ffffffffffffffff82111715611c8757611c86611c30565b5b80604052505050565b6000611c9a611c12565b9050611ca68282611c5f565b919050565b600067ffffffffffffffff821115611cc657611cc5611c30565b5b611ccf826119fe565b9050602081019050919050565b82818337600083830152505050565b6000611cfe611cf984611cab565b611c90565b905082815260208101848484011115611d1a57611d19611c2b565b5b611d25848285611cdc565b509392505050565b600082601f830112611d4257611d41611c26565b5b8135611d52848260208601611ceb565b91505092915050565b600060208284031215611d7157611d70611c1c565b5b600082013567ffffffffffffffff811115611d8f57611d8e611c21565b5b611d9b84828501611d2d565b91505092915050565b611dad8161194f565b8114611db857600080fd5b50565b600081359050611dca81611da4565b92915050565b600060208284031215611de657611de5611c1c565b5b6000611df484828501611dbb565b91505092915050565b611e0681611b4c565b82525050565b6000602082019050611e216000830184611dfd565b92915050565b7f4e487b7100000000000000000000000000000000000000000000000000000000600052602160045260246000fd5b60048110611e6757611e66611e27565b5b50565b6000819050611e7882611e56565b919050565b6000611e8882611e6a565b9050919050565b611e9881611e7d565b82525050565b6000602082019050611eb36000830184611e8f565b92915050565b600082825260208201905092915050565b6000611ed5826119af565b611edf8185611eb9565b9350611eef8185602086016119cb565b611ef8816119fe565b840191505092915050565b60006020820190508181036000830152611f1d8184611eca565b905092915050565b600080600060608486031215611f3e57611f3d611c1c565b5b6000611f4c86828701611dbb565b935050602084013567ffffffffffffffff811115611f6d57611f6c611c21565b5b611f7986828701611d2d565b925050604084013567ffffffffffffffff811115611f9a57611f99611c21565b5b611fa686828701611d2d565b9150509250925092565b6000606082019050611fc56000830186611959565b8181036020830152611fd78185611eca565b90508181036040830152611feb8184611eca565b9050949350505050565b7f496e76616c696420737461746500000000000000000000000000000000000000600082015250565b600061202b600d83611eb9565b915061203682611ff5565b602082019050919050565b6000602082019050818103600083015261205a8161201e565b9050919050565b7f4f6e6c792041646d696e2063616e2063616c6c20746869730000000000000000600082015250565b6000612097601883611eb9565b91506120a282612061565b602082019050919050565b600060208201905081810360008301526120c68161208a565b9050919050565b6000815190506120dc81611da4565b92915050565b6000602082840312156120f8576120f7611c1c565b5b6000612106848285016120cd565b91505092915050565b7f4e487b7100000000000000000000000000000000000000000000000000000000600052602260045260246000fd5b6000600282049050600182168061215657607f821691505b6020821081141561216a5761216961210f565b5b50919050565b600067ffffffffffffffff82111561218b5761218a611c30565b5b602082029050602081019050919050565b600080fd5b6121aa81611b4c565b81146121b557600080fd5b50565b6000815190506121c7816121a1565b92915050565b60006121e06121db84612170565b611c90565b905080838252602082019050602084028301858111156122035761220261219c565b5b835b8181101561222c578061221888826121b8565b845260208401935050602081019050612205565b5050509392505050565b600082601f83011261224b5761224a611c26565b5b815161225b8482602086016121cd565b91505092915050565b60006020828403121561227a57612279611c1c565b5b600082015167ffffffffffffffff81111561229857612297611c21565b5b6122a484828501612236565b91505092915050565b6000819050919050565b6000819050919050565b60006122dc6122d76122d2846122ad565b6122b7565b61194f565b9050919050565b6122ec816122c1565b82525050565b60006040820190506123076000830185611dfd565b61231460208301846122e3565b9392505050565b600067ffffffffffffffff82111561233657612335611c30565b5b602082029050602081019050919050565b600061235a6123558461231b565b611c90565b9050808382526020820190506020840283018581111561237d5761237c61219c565b5b835b818110156123a6578061239288826120cd565b84526020840193505060208101905061237f565b5050509392505050565b600082601f8301126123c5576123c4611c26565b5b81516123d5848260208601612347565b91505092915050565b6000602082840312156123f4576123f3611c1c565b5b600082015167ffffffffffffffff81111561241257612411611c21565b5b61241e848285016123b0565b91505092915050565b6000819050919050565b600061244c61244761244284612427565b6122b7565b61194f565b9050919050565b61245c81612431565b82525050565b60006040820190506124776000830185611dfd565b6124846020830184612453565b9392505050565b6000819050919050565b6124a66124a18261194f565b61248b565b82525050565b60006124b88284612495565b60208201915081905092915050565b600081905092915050565b60008190508160005260206000209050919050565b600081546124f48161213e565b6124fe81866124c7565b94506001821660008114612519576001811461252a5761255d565b60ff1983168652818601935061255d565b612533856124d2565b60005b8381101561255557815481890152600182019150602081019050612536565b838801955050505b50505092915050565b600061257282846124e7565b915081905092915050565b6000612588826119af565b61259281856124c7565b93506125a28185602086016119cb565b80840191505092915050565b60006125ba828461257d565b915081905092915050565b6000819050919050565b60006125ea6125e56125e0846125c5565b6122b7565b61194f565b9050919050565b6125fa816125cf565b82525050565b60006040820190506126156000830185611dfd565b61262260208301846125f1565b939250505056fea26469706673582212209da00f6b3617034acadfc31245c7533a296b7781cc86c642710506407c87c6b764736f6c634300080a0033",
  "immutableReferences": {},
  "source": "pragma solidity ^0.8.0;\r\n// pragma experimental ABIEncoderV2\r\n// Interface of Main contract to call from Session contract\r\ncontract Main {\r\n    function addSession(address session) public {}\r\n    function getSessions() public view returns(address [] memory, uint){}\r\n    function getSessionNum() public view returns(uint){}\r\n    function getAdminInfo() public returns(address){}\r\n    function register( string memory _name, string memory _email) public{}\r\n    function update(string memory _newName, string memory _newEmail) public{}\r\n    function statusSession(address _session,uint _status) public {}\r\n    function price(address _session, uint _price) public{}\r\n    function getProposedPrice(address _session)public returns(uint){}\r\n    function calculateLastPrice(address _addr)public {}\r\n    function getLastPrice(address _addr) external returns(uint){}\r\n    function getListOfPar(address _session)public returns(address [] memory){}\r\n    function getGivenPrices(address _session) public  returns(uint [] memory){}\r\n    function getProfileId(uint _id) view public returns(uint ,address,string memory,string memory,uint,uint){}\r\n    function getProfileAdd(address _addr) view public returns(uint ,address,string memory,string memory,uint,uint){}\r\n    function getTotalParNum() public view returns(uint){}\r\n    function getStatusSession(address _session) public returns(uint){}\r\n    \r\n}\r\n\r\ncontract Session {\r\n    // Variable to hold Main Contract Address when create new Session Contract\r\n    address public mainContract;\r\n    // Variable to hold Main Contract instance to call functions from Main\r\n    Main MainContract;\r\n\r\n    // TODO: Variables\r\n     \r\n    address public admin;\r\n    struct Item{\r\n        uint itemID ;\r\n        string itemName;\r\n        string description;\r\n    }\r\n    \r\n    Item public item;\r\n    uint public proposedPrice;\r\n    uint public lastPrice;\r\n    enum State{ CREATED, STARTED, STOPPED, CLOSED }\r\n    State public state = State.CREATED;    \r\n    address [] public participants;\r\n    uint [] public givenPrices;\r\n    string[] public imageHashes;\r\n    string public imageHash;\r\n    constructor(address _mainContract,address _admin, string memory _itemName, string memory _description) public {\r\n        // Get Main Contract instance\r\n        mainContract = _mainContract;\r\n        MainContract = Main(_mainContract);\r\n                // item.itemID = _itemID;\r\n        item.itemID = MainContract.getSessionNum();\r\n        item.itemName = _itemName;\r\n        item.description = _description;\r\n        admin =_admin;\r\n        // TODO: Init Session contract\r\n        \r\n        \r\n        // Call Main Contract function to link current contract.\r\n        MainContract.addSession(address(this));\r\n        \r\n    }\r\n    function setIdSession() public{\r\n        item.itemID = MainContract.getSessionNum();\r\n    }\r\n    function getProductInfo() view public returns(uint,string memory,string memory ){\r\n        return (item.itemID,item.itemName,item.description);\r\n    }\r\n    function setHash(string memory _imageHash)  public onlyAdmin{\r\n        imageHash =_imageHash;\r\n        imageHashes.push(_imageHash);\r\n\r\n    }\r\n    // function getImage() public view returns(string memory){\r\n    //     return imageHash;\r\n    // }\r\n    function getImages() public view returns(string [] memory ){\r\n        return imageHashes;\r\n    }\r\n    function startSession() public inState(State.CREATED) onlyAdmin{\r\n        state = State.STARTED;\r\n        MainContract.statusSession(address(this),1);\r\n    }\r\n    \r\n    function updateProductInfo(uint _newItemId, string memory _newName, string memory _newDescription) public onlyAdmin{\r\n        if(keccak256(abi.encodePacked(_newItemId)) != keccak256(abi.encodePacked(item.itemID))){\r\n           item.itemID = _newItemId;\r\n        }\r\n        if(keccak256(abi.encodePacked(_newName)) != keccak256(abi.encodePacked(item.itemName))){\r\n         item.itemName = _newName;\r\n        }\r\n        if(keccak256(abi.encodePacked(_newDescription)) != keccak256(abi.encodePacked(item.description))){\r\n            item.description = _newDescription;\r\n        }\r\n    }\r\n    function getProposedPrice()public inState(State.STARTED) onlyAdmin returns(uint){\r\n        proposedPrice = MainContract.getProposedPrice(address(this));\r\n        return proposedPrice;\r\n    }   \r\n    function stopSession()public onlyAdmin inState(State.STARTED){\r\n        MainContract.statusSession(address(this),2);\r\n        state = State.STOPPED;\r\n        MainContract.calculateLastPrice(address(this));\r\n        \r\n    }\r\n    function getPriceAndClose()public inState(State.STOPPED) onlyAdmin returns(uint){\r\n        MainContract.statusSession(address(this),3);\r\n        state = State.CLOSED;\r\n        lastPrice= MainContract.getLastPrice(address(this));\r\n        return lastPrice;\r\n    }\r\n    function getListOfPar()public onlyAdmin returns(address[] memory){\r\n        participants= MainContract.getListOfPar(address(this));\r\n        return participants;\r\n    }\r\n    function getGivenPrices()public onlyAdmin{\r\n        givenPrices = MainContract.getGivenPrices(address(this));\r\n    }\r\n    function getStatusSession()public view returns(State){\r\n        return state;\r\n    } \r\n    modifier onlyAdmin(){\r\n        require(msg.sender == admin, \"Only Admin can call this\");\r\n        _;\r\n    }\r\n    modifier inState(State _state){\r\n        require(state == _state,'Invalid state');\r\n        _;\r\n    }\r\n}\r\n",
  "sourcePath": "C:\\Users\\Admin\\Desktop\\do_an_funix\\bai 26.02.2022\\bai moi\\contract\\contracts\\Session.sol",
  "compiler": {
    "name": "solc",
    "version": "0.8.10+commit.fc410830.Emscripten.clang"
  },
  "schemaVersion": "3.4.3",
  "updatedAt": "2022-03-03T09:24:32.821Z",
  "devdoc": {
    "kind": "dev",
    "methods": {},
    "version": 1
  },
  "userdoc": {
    "kind": "user",
    "methods": {},
    "version": 1
  }
}